:1010000000000420BD120000E5120000E7120000FD
:10101000E9120000EB120000ED12000000000000D9
:10102000000000000000000000000000EF120000BF
:10103000F112000000000000F3120000F5120000A1
:10104000F7120000F7120000F7120000F71200007C
:10105000F7120000F7120000691F0000F7120000ED
:10106000F7120000F7120000F7120000F71200005C
:10107000F7120000F7120000F7120000F71200004C
:10108000F7120000D9160000F7120000F712000056
:10109000F7120000F7120000F7120000F71200002C
:1010A000F7120000F7120000F7120000F71200001C
:1010B000F7120000F712000000000000000000001E
:1010C000F7120000F7120000F7120000F7120000FC
:1010D000F7120000F7120000F7120000F7120000EC
:1010E000F7120000F7120000F712000000000000E5
:1010F00000000000F712000000000000F7120000DE
:1011000000000000000000000000000000000000DF
:1011100000000000000000000000000000000000CF
:1011200000000000000000000000000000000000BF
:1011300000000000000000000000000000000000AF
:10114000000000000000000000000000000000009F
:10115000000000000000000000000000000000008F
:10116000000000000000000000000000000000007F
:10117000000000000000000000000000000000006F
:10118000000000000000000000000000000000005F
:10119000000000000000000000000000000000004F
:1011A000000000000000000000000000000000003F
:1011B000000000000000000000000000000000002F
:1011C000000000000000000000000000000000001F
:1011D000000000000000000000000000000000000F
:1011E00000000000000000000000000000000000FF
:1011F00000000000000000000000000000000000EF
:1012000010B5054C237833B9044B13B10448AFF340
:1012100000800123237010BDA80000200000000002
:101220000C2C000008B5034B1BB103490348AFF376
:10123000008008BD00000000AC0000200C2C000065
:10124000A3F5803A704700BF174B002B08BF134B24
:101250009D46FFF7F5FF00218B460F461348144AC1
:10126000121A01F099FC0E4B002B00D098470D4B41
:10127000002B00D098470020002104000D000D48ED
:10128000002802D00C48AFF3008001F061FC200080
:10129000290001F00BF901F047FC00BF0000080035
:1012A000000000000000000000000420A800002052
:1012B000D001002000000000000000000649074A9D
:1012C000074B9B1A03DD043BC858D050FBDC01F0F0
:1012D000E9FAFFF7B9FF0000182C00000800002011
:1012E000A8000020FEE7FEE7FEE7FEE7FEE7FEE7D8
:1012F000FEE7FEE7FEE7FEE772B6024A1368013337
:1013000013607047C4000020034A1368013B136058
:1013100003B962B6704700BFC400002099B110B491
:10132000B2FBF3F403FB1424A4B244B9C0E90014E3
:1013300084608281C38120465DF8044B7047092098
:101340005DF8044B70470E20704700BF10B483B0A7
:1013500050E8013F1FFA83FCC489A4448489A44552
:1013600028BFACEB040C0489A44502BFBFF32F8F48
:10137000002207E0CCEA030C40E801C4002CE7D1CE
:101380004FF001028DF803200193019C9DF803208A
:101390000C6032B1006810FA84F003B05DF8044BC1
:1013A000704702F0FF03184603B05DF8044B704726
:1013B0000A884B889A4201D00020704750E8012FDC
:1013C000C2EA024240E80123002BF7D10120704716
:1013D00010B483B050E8023F1FFAA3FCC488A445B0
:1013E00002BFBFF32F8F00220EE0C489A44484897A
:1013F000A44528BFACEB040CC3EA0C4C40E802C483
:10140000002CE7D14FF001028DF803200193019CDD
:101410009DF803200C6032B1006800EB144003B06B
:101420005DF8044B704702F0FF03184603B05DF807
:10143000044B70470A884B889A4201D000207047BD
:1014400050E8022FC2EA224240E80223002BF7D1E3
:101450000120704710B41F4C437944F823201E4CE0
:1014600004EBC3031B798BBB03680A88C3F8082508
:1014700090F904308A78002B20DB03F1604352019D
:1014800003F56143D2B283F8002390F90430002BB6
:1014900009DB12494FEA531C012203F01F0302FA31
:1014A00003F341F82C30437904EBC302012144F8E3
:1014B0003300117100205DF8044B7047084903F0B8
:1014C0000F0352011944D2B20A76DEE708205DF814
:1014D000044B7047D0000020C800002000E100E06D
:1014E000FCEC00E0036801221A60704703680122E7
:1014F0005A60704770B405684FF480348C40C5F86A
:101500000843056801F1500CC5F848434FEA8C0CBC
:1015100005681FFA8CFC002645F80C6083B055F86E
:101520000C500195019D056801F5A87122F07F42DC
:1015300045F821200268C2F8444313B10368C3F898
:10154000044303B070BC70472DE9F0474FF4803678
:1015500022F07F4702688E40C2F848630268C2F8F2
:101560000863026802EB810C044601F15005D2F8D1
:101570000405DCF84025CCF84005AD00ADB2121AE8
:1015800020684FF0000840F8058082B04059009074
:1015900022F07F42012A00988A46994641D022686B
:1015A000D2F80455C2F844637A1B22F07F42012A24
:1015B0000AF5A87125D0236843F821702068D0F877
:1015C00004557B1BC9F1FF12013B02F57F4223F05A
:1015D0007F439A4211D343B1C0F84463236800208B
:1015E000C3F8046302B0BDE8F087013740F821700A
:1015F0002068D0F804359D42EED00D2002B0BDE841
:10160000F0872368013743F821700C4B4FF480605A
:1016100043F0010398472068D0F804359D42DBD0A1
:10162000EBE7064A4FF4806042F0010290472268DF
:1016300042F8058052590192019AB0E7D02B000080
:1016400002680223C2F8443311B10268C2F80433BD
:10165000704700BF0368D3F8040100B97047002247
:1016600082B0C3F80421D3F804310193019B012017
:1016700002B0704702684FF4803303FA01F1C2F8F8
:1016800048130368C3F80813704700BF503189003E
:10169000036889B2585800B9704700225A5082B086
:1016A0005B580193019B012002B070470368D3F897
:1016B0000405704790F90430002B09DB5A090548EE
:1016C00003F01F030121403201FA03F340F82230F6
:1016D000704700BF00E100E0024A034B10681B683E
:1016E000184700BFC8000020D000002030B48D682B
:1016F0008468C368CA68A54272EB03032CBF01204B
:10170000002030BC704700BF2DE9F04F2DED028B5B
:1017100083B008EE100AFFF79DFF40B1B04AD2E94E
:10172000003113F1807341F10001C2E9003118EE7C
:10173000100A0021FFF7AAFFAA4D60B32B6853B32C
:10174000A94B2C681B7823B31CB3A848FFF7AEFF46
:10175000A34BA74A19685B684018D2E9001243F10D
:101760000003884273EB020203D210F1807043F150
:101770000003D4E902128842934180F06181B2F102
:10178000FF3F08BFB1F1FF3F03D09A48214600F068
:1017900037FA00232B6018EE100A0121FFF776FFBD
:1017A000002840F02D81944801A9FFF711FE002880
:1017B0003AD0914C4FF0FF384FF0FF3909E033B386
:1017C00001A92046FFF736FE01A92046FFF700FEDB
:1017D00050B30378012B11D0022BF0D1854E304647
:1017E00000F022FA30B1C0E90289304600F01CFA5C
:1017F0000028F8D17C4B01221A70E1E72B68416880
:10180000994200F0B6807B4800F018FAD8E74168AA
:10181000D1E90223B3F1FF3F08BFB2F1FF3FCFD0C0
:10182000744800F0EDF9CBE7724FDFF8C081DFF8C4
:10183000B091384600F0FEF9002852D0D0E90223DA
:10184000B3F1FF3F08BFB2F1FF3F00F08E8029687F
:1018500091B12968D1E9020182428B4145D22B68BE
:10186000D3E90223B3F1FF3F08BFB2F1FF3F03D03A
:101870002968384600F0C4F9384600F0D5F9044626
:1018800040465B4ED4E902BAFFF710FFD9E90013D6
:101890003268401843F100039042726873EB020211
:1018A00003D210F1807043F10003BBEB00006AEB40
:1018B0000303012873F1000325DBB0F5D40F4ED2EA
:1018C0005A464FF4160300214046FFF73DFE88B10B
:1018D0000D281CD0002338462B6000F0ABF90028FF
:1018E000ACD12B68002B00F0A28003B0BDEC028BC2
:1018F000BDE8F08F2B68002B3ED02C6003B0BDEC10
:10190000028BBDE8F08F00214046FFF7B3FE364B57
:101910001B78002BDED04046FFF7C8FED9F8003018
:10192000D6E90012C018D9F8043043F10003884208
:1019300073EB020203D210F1807043F10003D4E98B
:101940000212884293411CD2B2F1FF3F08BFB1F1AD
:10195000FF3FBFD02146384600F052F9BAE7404673
:10196000FFF7A4FE254A0244ABE7384600F05CF9D5
:101970005FE700232B6023E718EE100AFFF7B2FDA4
:10198000BBE70020FFF7B8FC23692BB94FF0FF320B
:101990004FF0FF33C4E902230020FFF7B5FCD4E980
:1019A000053098470020FFF7A7FC2369A3B1D4E9CD
:1019B0000212B2F1FF3F08BFB1F1FF3F0CD05B183C
:1019C00042F10002A360E2600020FFF79DFC214687
:1019D000384600F015F97DE70020FFF795FC79E720
:1019E000D800002058010020E0000020080000205E
:1019F00050010020D82B00003C010020FFFF6900AF
:101A00002748284EFFF752FE274B1A685B6880185C
:101A1000D6E9001243F10003884273EB020203D2BD
:101A200010F1807043F10003C6E90003BBE618EE35
:101A3000100A03B0BDEC028BBDE8F04FFFF756BDB6
:101A40000020FFF759FC23692BB94FF0FF324FF00C
:101A5000FF33C4E902230020FFF756FCD4E9053028
:101A600098470020FFF748FC2369A3B1D4E902128C
:101A7000B2F1FF3F08BFB1F1FF3F0CD05B1842F15C
:101A80000002C4E902320020FFF73EFC074821466D
:101A900000F0B6F87DE60020FFF736FC79E600BFDF
:101AA0000800002050010020D8000020D82B0000A2
:101AB00010B582B0062200248DF806201249134882
:101AC000ADF8044008235822FFF728FC044610B163
:101AD000204602B010BD0E4A0E4801A9FFF7BAFC1D
:101AE00004460028F4D10B480121FFF7A9FD01238A
:101AF0001946094A0748FFF7FDFC084B012220461A
:101B00001A7002B010BD00BFE40000203C010020AC
:101B10000917000008000020FFFF7F00E000002000
:101B20006AB19FED097BA1F101010368B1FA81F16E
:101B3000490983ED027BC3E90412002070470720A6
:101B4000704700BFAFF30080FFFFFFFFFFFFFFFF05
:101B500070B5044682B0002016460D46FFF7CCFB58
:101B6000D4E90223B3F1FF3F08BFB2F1FF3F05D034
:101B70000020FFF7C9FB002002B070BD1C48FFF732
:101B800095FD1C4B1C4A19685B684018D2E900128D
:101B900043F10003884273EB020223D3281843F178
:101BA0000003C4E902030020FFF7AEFB2369A6612E
:101BB00003B12561114801A9FFF7C8FB034670B1C5
:101BC00000250E481D705C6001A9FFF7F1FB00289D
:101BD000D2D00748FFF76EFD284602B070BD042042
:101BE00002B070BD10F1807043F10003D6E700BF72
:101BF00008000020D8000020500100203C010020F7
:101C000070B54468064620680D4618B908E0246897
:101C1000206828B1B368294698470028F7D1206882
:101C20002860256070BD00BF4368186808B102686D
:101C30001A60704743681868704700BF43681868A7
:101C400018B908E00346006828B18142FAD10A6851
:101C50001A6001207047704730B5274C94F8603007
:101C600083B0002B45D14FF6FF704FF0FF0C5A099F
:101C7000012A18BF4FF0FF3103F01F0208BF0146D1
:101C800021FA02F2D20748BFE21803F1010348BF6C
:101C900082F828C0302BEAD14FF0FF304FF0FF31EF
:101CA0004FF0FF33C4E90001062200211348A4F8D5
:101CB0005830C4E90233C4E90433C4E90633C4E943
:101CC000083300F069FF0E4BA02283F80623402260
:101CD0001A600C4B0020C3F87C01D3F87C210192E0
:101CE00001214FF00042019D84F86010C3F80423E5
:101CF00000E0082003B030BD60010020BA010020E0
:101D000000E100E00060004070B55C4C04EB000CAA
:101D10009CF92830002B01DB082070BD8B78C3F3C1
:101D200040059B076BD52368013300F08B80636807
:101D3000013300F09A80A66801364FF0020312D0FA
:101D4000E368013300F083802369013300F0818070
:101D5000636901337FD0A369013300F08480E369B4
:101D6000013352D1072304EB000C44F823205AB26C
:101D70008CF8282015B9234483F850008B785D0730
:101D80001ED4DE074FD51F2887BF3D4B00F01F052F
:101D900005464FF0A04303EB8503D3F8005725F029
:101DA0000205C3F80057374EC50800F0070E16F8B5
:101DB00005C0012303FA0EF343EA0C0373558B7835
:101DC00013F0020323D0930003F1804303F5C043D3
:101DD0000978D3F8104524F44F3424F44074C3F840
:101DE000104502020904D3F8100501F4403102F451
:101DF0007C520A430243C3F81025002070BD236AB9
:101E0000013334D0636A013327D0042070BD083A0F
:101E100044FA82F4097894F85820184642EA81136B
:101E200084F8583070BD1F284D7887BF144E00F0DD
:101E30001F0303464FF0A04603F5E073AD0046F8DC
:101E40002350B0E7226000228CF8282096E7032375
:101E500089E7042387E7052385E7092362628CF875
:101E600028301A4687E706237DE701237BE708230E
:101E700022628CF828301A467DE700BF60010020FE
:101E800000030050BA01002030B4344C04EB000CC5
:101E900082B09CF92830072B24DD083B44FA83F3F9
:101EA00093F858309B09032B47D0012B0CBF4FF4FC
:101EB00000324FF440321F288ABF294B4FF0A04315
:101EC00000F01F0003EB8000D0F8003723F440330C
:101ED000C0F80037D0F800371A43C0F8002702B026
:101EE00030BC7047DAB2072AF9D8980000F1804078
:101EF00003F1400200F5C04052B29200D0F81055F4
:101F000092B202F1804202F5C04245F00105C0F8EC
:101F100010550020106012680192019A0029DED04D
:101F20009CF9282054F82220002AD8D00D490122FB
:101F300002FA03F3C1F80433D1E71F288ABF084A25
:101F40004FF0A04200F01F03D2F8102598BF0346BF
:101F5000DA4002F0010202321204ACE76001002014
:101F600000030050006000402DE9F047002384B0DA
:101F7000CDE90233BE4AD2F80011012900F08D816B
:101F80001E46BB4BD3F80421012A00F07781B84BE1
:101F9000D3F80821012A00F05C81B54BD3F80C215D
:101FA000012A00F04781B24BD3F81021012A00F03A
:101FB0003281AF4BD3F81421012A00F01D81AC4BC4
:101FC000D3F81821012A00F00881A94BD3F81C216D
:101FD000012A09D0A64BD3F87C21012A00F0748194
:101FE00046BB04B0BDE8F087D3F804231106F1D551
:101FF0000022C3F81C21D3F81C110091D3F87C11E6
:102000000098012946F0800614D1C3F87C21D3F84A
:102010007C3101934FF0A042019BD2F82015954BE3
:102020000291C2F82015D3F820250392C3F8202589
:1020300046F00046904F01250024A30003F18043A1
:10204000354203F5C0434FEA45050BD0D3F81005E0
:1020500057F82420D3F81015C0F30520C1F301412F
:1020600002B190470134082CE7D1002EB9DA824C36
:10207000804D01264FF0A04794F95800421C48D0EB
:10208000C0F3C20202F110030DEB030200F00703DC
:1020900012F8082C06FA03F31A42C1B200F03F000E
:1020A00037D01F2800F2918002464FF0A04909EB7B
:1020B000820306FA02F2D3F800C7D3F800E72EF441
:1020C000403EC3F800E704EB000ECCF3014C9EF950
:1020D00028E0D3F800A754F82E80BCF1020F0CBF03
:1020E0004FF4403E4FF4003E4EEA0A0EC3F800E7BC
:1020F000C9F82025B8F1000F0BD08909032900F099
:10210000E180BCF1020F00F0DA80BCF1030F00F0B7
:10211000F38094F95900431C47D0C0F3C20202F186
:1021200010030DEB030200F0070312F8082C06FA67
:1021300003F31A42C1B200F03F0036D01F2848D83E
:1021400002464FF0A04909EB820306FA02F2D3F8E7
:1021500000C7D3F800E72EF4403EC3F800E704EBD5
:10216000000ECCF3014C9EF928E0BCF1020F54F8AC
:102170002E80D3F800E70CBF4FF4403A4FF4003AFA
:102180004EEA0A0EC3F800E7C9F82025B8F1000F9F
:102190000BD08909032900F09080BCF1020F00F0F8
:1021A0008980BCF1030F00F0AB80D7F820250292A4
:1021B000C7F82025D5F820350393C5F820351343FB
:1021C0007FF45AAF04B0BDE8F08701F01F02A946C2
:1021D0006DE701F01F02A946B5E7D3F804235006C6
:1021E0007FF5F3AE0022C3F81821D3F8183100931D
:1021F000009B46F04006E8E6D3F8042394067FF5FA
:10220000DEAE0022C3F81421D3F814310093009BF2
:1022100046F02006D3E6D3F80423D5067FF5C9AEF1
:102220000022C3F81021D3F810310093009B46F030
:102230001006BEE6D3F8042317077FF5B4AE0022DC
:10224000C3F80C21D3F80C310093009B46F008062C
:10225000A9E6D3F8042352077FF59FAE0022C3F806
:102260000821D3F808310093009B46F0040694E659
:10227000006000400003005060010020D3F80423F8
:1022800091077FF584AE0022C3F80421D3F804310E
:102290000093009B46F0020679E6D2F8046316F03C
:1022A00001063FF46EAEC2F80031D2F8003100935F
:1022B000009B66E601297FF478AFC04775E70129E6
:1022C0007FF427AFC04724E70022C3F87C21D3F86E
:1022D0007C3101934FF0A042019BD2F820150A4BAC
:1022E0000291C2F82015D3F820250392C3F82025C7
:1022F000002E3FF4BCAE9BE602297FF40AAFE1E773
:1023000002297FF452AFD8E700030050014B0122AD
:102310001A707047CF010020024B1A780AB90122C7
:102320001A707047C4010020014B01221A707047D7
:10233000CD0100204FF0A04340F2037010B5C3F868
:1023400024074FF40070C3F8080540F20360C3F897
:1023500028075249524A4FF48060C3F80805032405
:102360000120C1F80047C1F80C054020C3F8184708
:10237000C3F8080510781F2800F2878000F5E07187
:1023800043F8214051784FF0010C1F290CFA00F05E
:1023900088BF01F01F01C3F80C058CBF3F4B4FF005
:1023A000A04301F5E070032443F8204090784FF0FB
:1023B000010C1F280CFA01F188BF00F01F00C3F8C0
:1023C0000C158CBF354B4FF0A04300F5E071032492
:1023D00043F82140D1784FF0010C1F290CFA00F08E
:1023E00088BF01F01F01C3F80C058CBF2B4B4FF0C9
:1023F000A04301F5E070032443F8204010794FF02A
:10240000010C1F280CFA01F188BF00F01F00C3F86F
:102410000C158CBF21494FF0A04100F5E073032457
:1024200041F8234053794FF0010C0CFA00F01F2BB8
:10243000C1F80C0521D903F01F03184903F5E07218
:10244000032041F8220001204FF0804200FA03F3FC
:102450000024C1F80C35C2F81805C2F80441906098
:10246000D2F80431002BFBD0FFF722FBBDE810406F
:102470000C4A0D480021FFF753BB4FF0A04103F574
:10248000E072032041F82200DDE700F01F0000F5B4
:10249000E07341F823400B4674E700BF000300508F
:1024A000100000200D230000E42B00002DE9F04F68
:1024B00085B0FFF73FFFFFF7CFFB9DF80A30C94A11
:1024C000032023F00703022402A98DF80900262027
:1024D0008DF80A308DF80840FFF716FC0121262000
:1024E000FFF7D2FC9DF80E30BF4AADF80C4023F048
:1024F000070303A92A208DF80E30FFF705FC012100
:102500002A20BA4CFFF7C0FC4FF47A7744F001045C
:102510004FF47A40A047013FFAD1B54D01972F7093
:10252000B44EDFF8E082B44FDFF8DC92DFF8DCA2D3
:10253000337803F0FF0223B9B04B1B7803F0FF0B95
:102540003BBB99F80030002B40F08D802B78F3B125
:102550004FF0A04B4FF40073CBF80C354FF47A409A
:10256000A04740224FF40073CBF80835CBF80C2578
:102570004FF47A7B4FF47A40A047BBF1010BF9D1BD
:102580004FF0A0434022C3F8082585F800B030BFC3
:10259000CEE79B484FF47021FFF7DAFA012333703E
:1025A000CAF8083598F800309BB198F800207B787D
:1025B00002F0FF0B002A00F001811F2B00F23F8187
:1025C0004FF0A041012202FA03F3C1F808354FF0A1
:1025D000000B98F801309BB198F80120BB7802F00D
:1025E000FF0B002A00F0F4801F2B00F230814FF027
:1025F000A041012202FA03F3C1F808354FF0000BA5
:1026000098F80230002B00F0C58098F80220FB7883
:10261000002A00F08C801F2B00F209814FF0A041AE
:10262000012202FA03F3C1F8083598F80330002BB1
:1026300040F08C8098F80430002B82D098F8042069
:102640007B79002A40F09C801F2B00F208814FF01C
:10265000A041012202FA03F3C1F80C3599F80030C9
:10266000002B3FF473AF0123CAF80C353B781F2BC6
:1026700088BF03F01F034FF0010202FA03F27B78D8
:102680008CBF51464FF0A0411F2BC1F80C2588BFCD
:1026900003F01F034FF0010202FA03F2BB788CBF74
:1026A00051464FF0A0411F2BC1F80C2588BF03F005
:1026B0001F034FF0010202FA03F2FB788CBF514670
:1026C0004FF0A0411F2BC1F80C2588BF03F01F035A
:1026D0004FF0010202FA03F23B798CBF51464FF0F2
:1026E000A0411F2BC1F80C2588BF03F01F034FF03A
:1026F000010202FA03F27B798CBF51464FF0A041F0
:102700001F2BC1F80C2588BF03F01F034FF00102F7
:102710008CBF51464FF0A04102FA03F3374AC1F88B
:102720000C35019B137089F8003033700EE71F2BB6
:1027300000F289804FF0A041012202FA03F3C1F8B0
:102740000C3598F80330002B3FF474AF98F8032051
:102750003B79002A5CD11F2B00F289804FF0A04109
:10276000012202FA03F3C1F80C3598F80430002B6B
:102770003FF4E7AE98F804207B79002A3FF464AF79
:102780001F2B68D84FF0A041012202FA03F3C1F8D1
:102790000835D6E698F80330002BD7D198F80430E6
:1027A000002B7FF44BAFBBF1000F3FF4CAAE4FF0EC
:1027B000A0434FF08072C3F80825C2E61F2B52D801
:1027C0004FF0A041012202FA03F3C1F80C3500E7F3
:1027D0001F2B50D84FF0A041012202FA03F3C1F899
:1027E0000C350DE71923000029230000F02B000011
:1027F000CD010020CE01002010000020C4010020E7
:1028000018000020C8010020CF0100200003005064
:102810001F2B10D84FF0A041012202FA03F3C1F898
:10282000083598F80430002B7FF408AF89E603F0F0
:102830001F035146F4E603F01F035146ECE703F093
:102840001F035146BEE603F01F03514674E703F031
:102850001F035146CDE603F01F03514694E703F0F2
:102860001F035146F5E603F01F035146AAE703F0A4
:102870001F03514674E703F01F035146ACE700BF46
:10288000BFF34F8F0549064BCA6802F4E062134359
:10289000CB60BFF34F8F00BFFDE700BF00ED00E04E
:1028A0000400FA0510B54FF08053D3F83021082A00
:1028B00026D08F4AD2F8883043F47003C2F88830AB
:1028C000BFF34F8FBFF36F8F4FF08053D3F830219A
:1028D000082A00F0B6804FF01023D3F80C22D1075D
:1028E00000F1E880D3F80022002AC0F2BD80D3F8BE
:1028F0000432002BC0F2B8807E4B7F4A1A6010BDB4
:102900004FF080410020C1F80C017C4AC1F8100151
:10291000C1F83805D3F80414C2F82015D3F8081408
:10292000C2F82415D3F80C14C2F82815D3F81014E3
:10293000C2F82C15D3F81414C2F83015D3F81814B3
:10294000C2F83415D3F81C14C2F84015D3F820147B
:10295000C2F84415D3F82414C2F84815D3F8281443
:10296000C2F84C15D3F82C14C2F85015D3F8301413
:10297000C2F85415D3F83414C2F86015D3F83814DB
:10298000C2F86415D3F83C14C2F86815D3F84014A3
:10299000C2F86C15D3F83411D3F84434C2F870354A
:1029A000052942D8564B5B5C1BB1564B564AC3F8BF
:1029B0008C26564B5B5C73B14FF080535449D3F86F
:1029C0003021FB20C1F81805082AD3F834117FF410
:1029D00070AF052929D84F4B5B5CBBB14FF08052DB
:1029E0004FF08040D2F85832D0F8E41ED2F830418F
:1029F00021F00F0103F00F030B43C0F8E43E082C55
:102A0000D2F834117FF455AF05290ED8424B5B5CE8
:102A10005BB14FF08053414AD3F830314FF400712D
:102A2000082BC2F840167FF444AF4FF08043D3F830
:102A30000024D2077FF53DAF6FF00102C3F80024F8
:102A400037E7D3F83431052B08D94FF010224FF077
:102A50008043D2F80822C3F858253CE7304AD35CBB
:102A6000002B3FF438AFF0E72E4A0123C2F80435BB
:102A7000D2F80034002BFBD04FF010231221294A4A
:102A8000C3F80012D2F80034002BFBD04FF0102313
:102A90001221244AC3F80412D2F80034002BFBD0D0
:102AA00000232049C2F80435D1F80034002BFBD0B4
:102AB000FFF7E6FE1B4A0123C2F80435D2F80034C2
:102AC000002BFBD04FF01021164AD1F80C3223F026
:102AD0000103C1F80C32D2F80034002BFBD00023E4
:102AE0001049C2F80435D1F80034002BFBD0DFE7E1
:102AF00000ED00E0380000200090D00300C000404E
:102B0000002C00000050004048810300002C000011
:102B100000F00040002C0000002C0000009002405B
:102B2000F82B000000E0014008B5074B044613B144
:102B30000021AFF30080054B1868836A03B1984702
:102B4000204600F031F800BF00000000082C000013
:102B500070B50D4D0D4C641BA4100026A64209D182
:102B60000B4D0C4C00F022F8641BA4100026A6426A
:102B700005D170BD55F8043B98470136EEE755F88E
:102B8000043B98470136F2E79C0000209C0000209F
:102B90009C000020A000002002440346934200D184
:102BA000704703F8011BF9E7FEE700BFF8B500BF67
:102BB000F8BC08BC9E467047F8B500BFF8BC08BC1E
:102BC0009E4670470000000000000000000000006A
:102BD0000338FDD87047000000000000D40000203A
:102BE000ED160000180000200000000000000000AA
:102BF0000338FDD87047000000000000010100000C
:102C000001000000000000003C0000200000000067
:082C100030E6FF7F0100000027
:102C18000010014011000400181614110F0D0000D7
:102C28000000000000000000FFFFFFFFFFFFFFFFA4
:102C3800000000000000000000000000000000008C
:102C48000090D00300000000000000000000000019
:102C5800000000000000000000000000000000006C
:102C6800000000000000000000000000000000005C
:102C7800000000000000000000000000000000004C
:102C8800000000000000000000000000000000003C
:102C9800000000000000000000000000000000002C
:0C2CA800000000002512000001120000D6
:04000003000012BD2A
:00000001FF
