:1010000000000420BD120000E5120000E7120000FD
:10101000E9120000EB120000ED12000000000000D9
:10102000000000000000000000000000EF120000BF
:10103000F112000000000000F3120000F5120000A1
:10104000F7120000F7120000F7120000F71200007C
:10105000F7120000F7120000F7120000F71200006C
:10106000F7120000F7120000F7120000F71200005C
:10107000F7120000F7120000F7120000F71200004C
:10108000F7120000F7120000F7120000F71200003C
:10109000F7120000F7120000F7120000F71200002C
:1010A000F7120000F7120000F7120000F71200001C
:1010B000F7120000F712000000000000000000001E
:1010C000F7120000F7120000F7120000F7120000FC
:1010D000F7120000F7120000F7120000F7120000EC
:1010E000F7120000F7120000F712000000000000E5
:1010F00000000000F712000000000000F7120000DE
:1011000000000000000000000000000000000000DF
:1011100000000000000000000000000000000000CF
:1011200000000000000000000000000000000000BF
:1011300000000000000000000000000000000000AF
:10114000000000000000000000000000000000009F
:10115000000000000000000000000000000000008F
:10116000000000000000000000000000000000007F
:10117000000000000000000000000000000000006F
:10118000000000000000000000000000000000005F
:10119000000000000000000000000000000000004F
:1011A000000000000000000000000000000000003F
:1011B000000000000000000000000000000000002F
:1011C000000000000000000000000000000000001F
:1011D000000000000000000000000000000000000F
:1011E00000000000000000000000000000000000FF
:1011F00000000000000000000000000000000000EF
:1012000010B5054C237833B9044B13B10448AFF340
:1012100000800123237010BD740000200000000036
:101220004C19000008B5034B1BB103490348AFF349
:10123000008008BD00000000780000204C1900006C
:10124000A3F5803A704700BF174B002B08BF134B24
:101250009D46FFF7F5FF00218B460F461348144AC1
:10126000121A00F049FB0E4B002B00D098470D4B93
:10127000002B00D098470020002104000D000D48ED
:10128000002802D00C48AFF3008000F011FB2000D2
:10129000290000F031F800F0F7FA00BF0000080064
:1012A0000000000000000000000004207400002086
:1012B000A400002000000000000000000649074ACA
:1012C000074B9B1A03DD043BC858D050FBDC00F0F1
:1012D000ADF9FFF7B9FF0000581900000800002021
:1012E00074000020FEE7FEE7FEE7FEE7FEE7FEE70C
:1012F000FEE7FEE7FEE7FEE72DE988484FF0A04352
:1013000003224FF48051BF4CC3F818274020C3F884
:101310000805C3F83027C3F808154FF48071C3F8E7
:10132000202744F001044FF47A75C3F808154FF4F0
:101330007A40A047013DFAD14FF01023B248D3F8CC
:101340008020B249DFF8E0A2D2430260D3F88430B3
:10135000AF48DB430B60C2F3C2010170AD49C2F379
:10136000821B02F007020A70AB498AF800B0C3F38F
:1013700003320A70A949C3F303220A70A849C3F3D0
:1013800003120A70A74A03F00F0313704FF0A04531
:101390004FF480584026C5F80C854FF00009BBF18A
:1013A000000F15D04FF4FA774FF47A40A047013F71
:1013B000FAD1C5F80C654FF4FA774FF47A40A0479C
:1013C000013FFAD109F10109D945C5F80865E9D10C
:1013D000C5F808854FF4FA694FF47A40A047B9F18F
:1013E0000109F9D18A4B93F800B0C5F80C85BBF11F
:1013F000000F15D04FF4FA774FF47A40A047013F21
:10140000FAD1C5F80C654FF4FA774FF47A40A0474B
:10141000013FFAD109F10109D945C5F80865E9D1BB
:10142000C5F808854FF4FA694FF47A40A047B9F13E
:101430000109F9D1774B93F800B0C5F80C85BBF1E1
:10144000000F15D04FF4FA774FF47A40A047013FD0
:10145000FAD1C5F80C654FF4FA774FF47A40A047FB
:10146000013FFAD109F10109D945C5F80865E9D16B
:10147000C5F808854FF4FA674FF47A40A047013F5A
:10148000FAD141F288394FF47A40A047B9F1010905
:10149000F9D1614B93F800B04FF48073C5F80C3567
:1014A000BBF1000F15D04FF4FA774FF47A40A04704
:1014B000013FFAD1C5F80C654FF4FA774FF47A4042
:1014C000A047013FFAD109F10109D945C5F80865DE
:1014D000E9D14FF48073C5F808354FF4FA694FF439
:1014E0007A40A047B9F10109F9D14C4B93F800B00B
:1014F0004FF48073C5F80C35BBF1000F15D04FF4D5
:10150000FA774FF47A40A047013FFAD1C5F80C654D
:101510004FF4FA774FF47A40A047013FFAD109F12E
:101520000109D945C5F80865E9D14FF48073C5F8BC
:1015300008354FF4FA694FF47A40A047B9F1010930
:10154000F9D1374B93F800B04FF48073C5F80C35E0
:10155000BBF1000F15D04FF4FA774FF47A40A04753
:10156000013FFAD1C5F80C654FF4FA774FF47A4091
:10157000A047013FFAD109F10109D945C5F808652D
:10158000E9D14FF48073C5F808354FF4FA694FF488
:101590007A40A047B9F10109F9D1224B93F800B084
:1015A0004FF48073C5F80C35BBF1000F15D04FF424
:1015B000FA774FF47A40A047013FFAD1C5F80C659D
:1015C0004FF4FA774FF47A40A047013FFAD109F17E
:1015D0000109D945C5F80865E9D14FF48073C5F80C
:1015E00008354FF4FA674FF47A40A047013FFAD12B
:1015F00041F288374FF47A40A047013FFAD19AF878
:1016000000B0C8E6301900009800002090000020CB
:10161000950000209C0000209F0000209E000020DC
:10162000A00000209D0000209400002010B44FF086
:101630008053D3F83021082A23D0844AD2F8883046
:1016400043F47003C2F88830BFF34F8FBFF36F8F3E
:101650004FF08053D3F83021082A00F0B3804FF0C8
:101660001023D3F80022002AC0F2BF80D3F804323E
:10167000002BC0F2BA80764B764A1A605DF8044BB4
:1016800070474FF080410020C1F80C01724AC1F848
:101690001001C1F83805D3F80414C2F82015D3F8A6
:1016A0000814C2F82415D3F80C14C2F82815D3F87E
:1016B0001014C2F82C15D3F81414C2F83015D3F84E
:1016C0001814C2F83415D3F81C14C2F84015D3F816
:1016D0002014C2F84415D3F82414C2F84815D3F8DE
:1016E0002814C2F84C15D3F82C14C2F85015D3F8AE
:1016F0003014C2F85415D3F83414C2F86015D3F876
:101700003814C2F86415D3F83C14C2F86815D3F83D
:101710004014C2F86C15D3F83411D3F84434C2F82D
:101720007035052942D84D4B5B5C1BB14C4B4D4A83
:10173000C3F88C264C4B5B5C73B14FF080534B4924
:10174000D3F83021FB20C1F81805082AD3F834114A
:101750007FF473AF052929D8454B5B5CBBB14FF0D3
:1017600080524FF08040D2F85832D0F8E41ED2F8C0
:10177000304121F00F0103F00F030B43C0F8E43EAA
:10178000082CD2F834117FF458AF05290ED8394B04
:101790005B5C5BB14FF08053374AD3F830314FF484
:1017A0000071082BC2F840167FF447AF4FF080431A
:1017B000D3F80024D2077FF540AF6FF00102C3F8E1
:1017C00000243AE7D3F83431052B08D94FF0102222
:1017D0004FF08043D2F80822C3F858253FE7274A44
:1017E000D35C002B3FF43BAFF0E7254A0123C2F85E
:1017F0000435D2F80034002BFBD04FF01023122117
:101800001F4AC3F80012D2F80034002BFBD04FF06F
:10181000102312211A4AC3F80412D2F80034002B04
:10182000FBD000231649C2F80435D1F80034002B50
:10183000FBD0BFF34F8F0549124BCA6802F4E06238
:101840001343CB60BFF34F8F00BFFDE700ED00E017
:10185000080000200090D00300C0004040190000A4
:1018600000500040488103004019000000F0004093
:101870004019000040190000009002403819000093
:1018800000E001400400FA0508B5074B044613B117
:101890000021AFF30080054B1868836A03B19847B5
:1018A000204600F031F800BF000000004819000099
:1018B00070B50D4D0D4C641BA4100026A64209D135
:1018C0000B4D0C4C00F022F8641BA4100026A6421D
:1018D00005D170BD55F8043B98470136EEE755F841
:1018E000043B98470136F2E76C0000206C000020B2
:1018F0006C0000207000002002440346934200D197
:10190000704703F8011BF9E7FEE700BFF8B500BF19
:10191000F8BC08BC9E467047F8B500BFF8BC08BCD0
:101920009E4670470000000000000000000000001C
:101930000338FDD8704700000000000001010000DE
:1019400001000000000000000C000020000000006A
:08195000F0F8FF7F0100000028
:101958000090D0030000000000000000000000001C
:10196800000000000000000000000000000000006F
:10197800000000000000000000000000000000005F
:10198800000000000000000000000000000000004F
:10199800000000000000000000000000000000003F
:1019A800000000000000000000000000000000002F
:0C19B800000000002512000001120000D9
:04000003000012BD2A
:00000001FF
