:1010000000000420BD120000E5120000E7120000FD
:10101000E9120000EB120000ED12000000000000D9
:10102000000000000000000000000000EF120000BF
:10103000F112000000000000F3120000F5120000A1
:10104000F7120000F7120000F7120000F71200007C
:10105000F7120000F712000009240000F712000048
:10106000F7120000F7120000F7120000F71200005C
:10107000F7120000F7120000F7120000F71200004C
:10108000F7120000D9160000F7120000F712000056
:10109000F7120000F7120000F7120000F71200002C
:1010A000F7120000F7120000F7120000F71200001C
:1010B000E51F0000F7120000000000000000000023
:1010C000F7120000F7120000F7120000F7120000FC
:1010D000F7120000F7120000F7120000F7120000EC
:1010E000F7120000F7120000F712000000000000E5
:1010F00000000000F712000000000000F7120000DE
:1011000000000000000000000000000000000000DF
:1011100000000000000000000000000000000000CF
:1011200000000000000000000000000000000000BF
:1011300000000000000000000000000000000000AF
:10114000000000000000000000000000000000009F
:10115000000000000000000000000000000000008F
:10116000000000000000000000000000000000007F
:10117000000000000000000000000000000000006F
:10118000000000000000000000000000000000005F
:10119000000000000000000000000000000000004F
:1011A000000000000000000000000000000000003F
:1011B000000000000000000000000000000000002F
:1011C000000000000000000000000000000000001F
:1011D000000000000000000000000000000000000F
:1011E00000000000000000000000000000000000FF
:1011F00000000000000000000000000000000000EF
:1012000010B5054C237833B9044B13B10448AFF340
:1012100000800123237010BDF800002000000000B2
:10122000CC39000008B5034B1BB103490348AFF3A9
:10123000008008BD00000000FC000020CC39000048
:10124000A3F5803A704700BF174B002B08BF134B24
:101250009D46FFF7F5FF00218B460F461348144AC1
:10126000121A01F0CDFF0E4B002B00D098470D4B0A
:10127000002B00D098470020002104000D000D48ED
:10128000002802D00C48AFF3008001F095FF200049
:10129000290001F0B5FC01F07BFF00BF0000080051
:1012A000000000000000000000000420F800002002
:1012B0005002002000000000000000000649074A1C
:1012C000074B9B1A03DD043BC858D050FBDC01F0F0
:1012D0001DFEFFF7B9FF0000D8390000080000200C
:1012E000F8000020FEE7FEE7FEE7FEE7FEE7FEE788
:1012F000FEE7FEE7FEE7FEE772B6024A1368013337
:101300001360704714010020034A1368013B136007
:1013100003B962B6704700BF1401002099B110B440
:10132000B2FBF3F403FB1424A4B244B9C0E90014E3
:1013300084608281C38120465DF8044B7047092098
:101340005DF8044B70470E20704700BF10B483B0A7
:1013500050E8013F1FFA83FCC489A4448489A44552
:1013600028BFACEB040C0489A44502BFBFF32F8F48
:10137000002207E0CCEA030C40E801C4002CE7D1CE
:101380004FF001028DF803200193019C9DF803208A
:101390000C6032B1006810FA84F003B05DF8044BC1
:1013A000704702F0FF03184603B05DF8044B704726
:1013B0000A884B889A4201D00020704750E8012FDC
:1013C000C2EA024240E80123002BF7D10120704716
:1013D00010B483B050E8023F1FFAA3FCC488A445B0
:1013E00002BFBFF32F8F00220EE0C489A44484897A
:1013F000A44528BFACEB040CC3EA0C4C40E802C483
:10140000002CE7D14FF001028DF803200193019CDD
:101410009DF803200C6032B1006800EB144003B06B
:101420005DF8044B704702F0FF03184603B05DF807
:10143000044B70470A884B889A4201D000207047BD
:1014400050E8022FC2EA224240E80223002BF7D1E3
:101450000120704710B41F4C437944F823201E4CE0
:1014600004EBC3031B798BBB03680A88C3F8082508
:1014700090F904308A78002B20DB03F1604352019D
:1014800003F56143D2B283F8002390F90430002BB6
:1014900009DB12494FEA531C012203F01F0302FA31
:1014A00003F341F82C30437904EBC302012144F8E3
:1014B0003300117100205DF8044B7047084903F0B8
:1014C0000F0352011944D2B20A76DEE708205DF814
:1014D000044B7047200100201801002000E100E0CB
:1014E000FCEC00E0036801221A60704703680122E7
:1014F0005A60704770B405684FF480348C40C5F86A
:101500000843056801F1500CC5F848434FEA8C0CBC
:1015100005681FFA8CFC002645F80C6083B055F86E
:101520000C500195019D056801F5A87122F07F42DC
:1015300045F821200268C2F8444313B10368C3F898
:10154000044303B070BC70472DE9F0474FF4803678
:1015500022F07F4702688E40C2F848630268C2F8F2
:101560000863026802EB810C044601F15005D2F8D1
:101570000405DCF84025CCF84005AD00ADB2121AE8
:1015800020684FF0000840F8058082B04059009074
:1015900022F07F42012A00988A46994641D022686B
:1015A000D2F80455C2F844637A1B22F07F42012A24
:1015B0000AF5A87125D0236843F821702068D0F877
:1015C00004557B1BC9F1FF12013B02F57F4223F05A
:1015D0007F439A4211D343B1C0F84463236800208B
:1015E000C3F8046302B0BDE8F087013740F821700A
:1015F0002068D0F804359D42EED00D2002B0BDE841
:10160000F0872368013743F821700C4B4FF480605A
:1016100043F0010398472068D0F804359D42DBD0A1
:10162000EBE7064A4FF4806042F0010290472268DF
:1016300042F8058052590192019AB0E790390000B2
:1016400002680223C2F8443311B10268C2F80433BD
:10165000704700BF0368D3F8040100B97047002247
:1016600082B0C3F80421D3F804310193019B012017
:1016700002B0704702684FF4803303FA01F1C2F8F8
:1016800048130368C3F80813704700BF503189003E
:10169000036889B2585800B9704700225A5082B086
:1016A0005B580193019B012002B070470368D3F897
:1016B0000405704790F90430002B09DB5A090548EE
:1016C00003F01F030121403201FA03F340F82230F6
:1016D000704700BF00E100E0024A034B10681B683E
:1016E000184700BF180100202001002030B48D6889
:1016F0008468C368CA68A54272EB03032CBF01204B
:10170000002030BC704700BF2DE9F04F2DED028B5B
:1017100083B008EE100AFFF79DFF40B1B04AD2E94E
:10172000003113F1807341F10001C2E9003118EE7C
:10173000100A0021FFF7AAFFAA4D60B32B6853B32C
:10174000A94B2C681B7823B31CB3A848FFF7AEFF46
:10175000A34BA74A19685B684018D2E9001243F10D
:101760000003884273EB020203D210F1807043F150
:101770000003D4E902128842934180F06181B2F102
:10178000FF3F08BFB1F1FF3F03D09A48214600F068
:1017900087FC00232B6018EE100A0121FFF776FF6B
:1017A000002840F02D81944801A9FFF711FE002880
:1017B0003AD0914C4FF0FF384FF0FF3909E033B386
:1017C00001A92046FFF736FE01A92046FFF700FEDB
:1017D00050B30378012B11D0022BF0D1854E304647
:1017E00000F072FC30B1C0E90289304600F06CFCB8
:1017F0000028F8D17C4B01221A70E1E72B68416880
:10180000994200F0B6807B4800F068FCD8E7416858
:10181000D1E90223B3F1FF3F08BFB2F1FF3FCFD0C0
:10182000744800F03DFCCBE7724FDFF8C081DFF871
:10183000B091384600F04EFC002852D0D0E9022387
:10184000B3F1FF3F08BFB2F1FF3F00F08E8029687F
:1018500091B12968D1E9020182428B4145D22B68BE
:10186000D3E90223B3F1FF3F08BFB2F1FF3F03D03A
:101870002968384600F014FC384600F025FC044680
:1018800040465B4ED4E902BAFFF710FFD9E90013D6
:101890003268401843F100039042726873EB020211
:1018A00003D210F1807043F10003BBEB00006AEB40
:1018B0000303012873F1000325DBB0F5D40F4ED2EA
:1018C0005A464FF4160300214046FFF73DFE88B10B
:1018D0000D281CD0002338462B6000F0FBFB0028AD
:1018E000ACD12B68002B00F0A28003B0BDEC028BC2
:1018F000BDE8F08F2B68002B3ED02C6003B0BDEC10
:10190000028BBDE8F08F00214046FFF7B3FE364B57
:101910001B78002BDED04046FFF7C8FED9F8003018
:10192000D6E90012C018D9F8043043F10003884208
:1019300073EB020203D210F1807043F10003D4E98B
:101940000212884293411CD2B2F1FF3F08BFB1F1AD
:10195000FF3FBFD02146384600F0A2FBBAE7404621
:10196000FFF7A4FE254A0244ABE7384600F0ACFB83
:101970005FE700232B6023E718EE100AFFF7B2FDA4
:10198000BBE70020FFF7B8FC23692BB94FF0FF320B
:101990004FF0FF33C4E902230020FFF7B5FCD4E980
:1019A000053098470020FFF7A7FC2369A3B1D4E9CD
:1019B0000212B2F1FF3F08BFB1F1FF3F0CD05B183C
:1019C00042F10002A360E2600020FFF79DFC214687
:1019D000384600F065FB7DE70020FFF795FC79E7CE
:1019E00028010020A801002030010020080000206C
:1019F000A0010020983900008C010020FFFF690041
:101A00002748284EFFF752FE274B1A685B6880185C
:101A1000D6E9001243F10003884273EB020203D2BD
:101A200010F1807043F10003C6E90003BBE618EE35
:101A3000100A03B0BDEC028BBDE8F04FFFF756BDB6
:101A40000020FFF759FC23692BB94FF0FF324FF00C
:101A5000FF33C4E902230020FFF756FCD4E9053028
:101A600098470020FFF748FC2369A3B1D4E902128C
:101A7000B2F1FF3F08BFB1F1FF3F0CD05B1842F15C
:101A80000002C4E902320020FFF73EFC074821466D
:101A900000F006FB7DE60020FFF736FC79E600BF8C
:101AA00008000020A0010020280100209839000033
:101AB00010B582B0062200248DF806201249134882
:101AC000ADF8044008235822FFF728FC044610B163
:101AD000204602B010BD0E4A0E4801A9FFF7BAFC1D
:101AE00004460028F4D10B480121FFF7A9FD01238A
:101AF0001946094A0748FFF7FDFC084B012220461A
:101B00001A7002B010BD00BF340100208C0100200B
:101B10000917000008000020FFFF7F0030010020AF
:101B20006AB19FED097BA1F101010368B1FA81F16E
:101B3000490983ED027BC3E90412002070470720A6
:101B4000704700BFAFF30080FFFFFFFFFFFFFFFF05
:101B500070B5044682B0002016460D46FFF7CCFB58
:101B6000D4E90223B3F1FF3F08BFB2F1FF3F05D034
:101B70000020FFF7C9FB002002B070BD1C48FFF732
:101B800095FD1C4B1C4A19685B684018D2E900128D
:101B900043F10003884273EB020223D3281843F178
:101BA0000003C4E902030020FFF7AEFB2369A6612E
:101BB00003B12561114801A9FFF7C8FB034670B1C5
:101BC00000250E481D705C6001A9FFF7F1FB00289D
:101BD000D2D00748FFF76EFD284602B070BD042042
:101BE00002B070BD10F1807043F10003D6E700BF72
:101BF0000800002028010020A00100208C01002006
:101C0000F0B5B34B047903EBC40589B02D79002DF1
:101C100040F0018143F8342091F800E0BEF1FF0F5D
:101C20004FEAC40C45D02EF080041EF0800F0494BF
:101C300040F013811F2C40F2F980A64F0EF01F06D2
:101C40000125B540C7F80C551F2C00F2FB804FF062
:101C5000A04504F5E074032645F824604E78FF2E75
:101C60002DD18E784FF0FF34FF2E059445D026F00D
:101C700080043706069400F112811F2C40F2CE80BA
:101C8000DFF850E206F01F070125BD40CEF80C55E5
:101C90001F2C00F2D3804FF0A04504F5E07403261A
:101CA00045F82460CE78FF2E2DD14FF0FF340794F5
:101CB00048E04E784FF0FF34FF2E0494D1D026F048
:101CC00080043506059400F1E0801F2C40F2AA80C4
:101CD000DFF800E206F01F070125BD40CEF80C55E5
:101CE0001F2C00F2A7804FF0A04504F5E0740326F6
:101CF00045F824608E78FF2EB9D1CE784FF0FF34AE
:101D0000FF2E0694D1D026F080043506079400F10A
:101D1000AE801F2C87BF6F4F06F01F0EA6464FF0F8
:101D2000A047012505FA0EF5C7F80C551F2C86BFF4
:101D300006F01F04674D4FF0A04504F5E07403263C
:101D400045F824600468049DC4F86055059DC4F8F6
:101D50006455069DC4F86855079DC4F86C55046821
:101D60000125C4F8005504680D898E794F79C4F8AF
:101D70000C75C4F80465C4F8085504684D89C4F8A6
:101D8000105505680024C5F800420568C5F80043F1
:101D90000568C5F81C41D5F81C510495049D0568DB
:101DA000C5F81041D5F810510395039D0568C5F895
:101DB0001441D5F814510295029D0568C5F80441F7
:101DC000D5F804410194019CFAB104680A7944F3FE
:101DD000073100294FEA143438DB01F16041520128
:101DE00001F56141D2B281F80023026842F3073164
:101DF00000294FEA123208DB012002F01F0200FA2C
:101E000002F24909344840F82120634401220020AD
:101E10001A7109B0F0BD082009B0F0BD27464FF097
:101E2000A04E31E727464FF0A04E55E726464FF02B
:101E3000A04705E7274D06F01F0456E7254D06F09D
:101E40001F042AE7234D0EF01F0402E7234904F084
:101E50000F045201D2B20A55C7E71F2C29D82646D3
:101E60004FF0A0470125B540C7F80855ECE61F2CF8
:101E700087BF184F06F01F0EA6464FF0A04701255A
:101E800005FA0EF5C7F8085550E71F2C15D8274658
:101E90004FF0A04E0125BD40CEF8085520E71F2C7D
:101EA00010D827464FF0A04E0125BD40CEF808556A
:101EB000EEE6084F0EF01F06D4E7DFF818E006F054
:101EC0001F07E7E7DFF80CE006F01F07ECE700BFAD
:101ED000AC0100200003005000E100E014ED00E040
:101EE00070B504680D6890F804C0C4F820558D885A
:101EF000C4F824558D68C4F82855CD68C4F82C550D
:101F000004680D68C4F840558D88C4F844558D6840
:101F1000C4F84855C968C4F84C15046802F00101BA
:101F200001EB5202C4F81425DA0782B041D413F051
:101F3000020240D10029016814BF4FF00C0E4FF08F
:101F4000080EC1F80022DCB2254A02EBCC0152F89F
:101F50003C204C7102250D71D2B104F00402002A1C
:101F600004F0080605BFA2214FF0220CB221822204
:101F70001EBF4FF0320C92221225002E04BF1146D4
:101F8000AC46026814F0100F18BF6146C2F8001387
:101F900001680022C1F80421D1F8041101911B0647
:101FA000019911D403680121104643F80E1002B0C4
:101FB00070BD1022BEE759B102680821C2F80012B4
:101FC000DCB24FF00C0EBFE70068704402B070BD89
:101FD00002680421C2F80012DCB24FF0080EB3E729
:101FE000AC01002000B52C4BD3F8102185B052B1C4
:101FF00000212A4AC3F81011D3F810115379039124
:102000000399590741D4244BD3F8142152B100212C
:10201000224AC3F81411D3F81411537902911B0703
:1020200002992CD41C4BD3F81C215AB11B4A002115
:10203000C3F81C115079D3F81C31019310F0100033
:10204000019B17D0144BD3F8042182B1134A00210D
:10205000C3F80411D3F8041113680091012100980A
:10206000117123B1032005B05DF804EB184705B0EA
:102070005DF804FB1368002BE4D09847E2E713688F
:10208000002BCFD002209847CCE71368002BBAD0A2
:1020900001209847B7E700BF00C00140AC01002015
:1020A00070B54468064620680D4618B908E02468F3
:1020B000206828B1B368294698470028F7D12068DE
:1020C0002860256070BD00BF4368186808B10268C9
:1020D0001A60704743681868704700BF4368186803
:1020E00018B908E00346006828B18142FAD10A68AD
:1020F0001A6001207047704730B5274C94F8603063
:1021000083B0002B45D14FF6FF704FF0FF0C5A09FA
:10211000012A18BF4FF0FF3103F01F0208BF01462C
:1021200021FA02F2D20748BFE21803F1010348BFC7
:1021300082F828C0302BEAD14FF0FF304FF0FF314A
:102140004FF0FF33C4E90001062200211348A4F830
:102150005830C4E90233C4E90433C4E90633C4E99E
:10216000083301F04DF80E4BA02283F806234022DD
:102170001A600C4B0020C3F87C01D3F87C2101923B
:1021800001214FF00042019D84F86010C3F8042340
:1021900000E0082003B030BDB8010020120200208A
:1021A00000E100E00060004070B55C4C04EB000C06
:1021B0009CF92830002B01DB082070BD8B78C3F31D
:1021C00040059B076BD52368013300F08B80636863
:1021D000013300F09A80A66801364FF0020312D056
:1021E000E368013300F083802369013300F08180CC
:1021F000636901337FD0A369013300F08480E36910
:10220000013352D1072304EB000C44F823205AB2C7
:102210008CF8282015B9234483F850008B785D078B
:102220001ED4DE074FD51F2887BF3D4B00F01F058A
:1022300005464FF0A04303EB8503D3F8005725F084
:102240000205C3F80057374EC50800F0070E16F810
:1022500005C0012303FA0EF343EA0C0373558B7890
:1022600013F0020323D0930003F1804303F5C0432E
:102270000978D3F8104524F44F3424F44074C3F89B
:10228000104502020904D3F8100501F4403102F4AC
:102290007C520A430243C3F81025002070BD236A14
:1022A000013334D0636A013327D0042070BD083A6B
:1022B00044FA82F4097894F85820184642EA8113C7
:1022C00084F8583070BD1F284D7887BF144E00F039
:1022D0001F0303464FF0A04603F5E073AD0046F838
:1022E0002350B0E7226000228CF8282096E70323D1
:1022F00089E7042387E7052385E7092362628CF8D1
:1023000028301A4687E706237DE701237BE7082369
:1023100022628CF828301A467DE700BFB801002001
:10232000000300501202002030B4344C04EB000CC7
:1023300082B09CF92830072B24DD083B44FA83F354
:1023400093F858309B09032B47D0012B0CBF4FF457
:1023500000324FF440321F288ABF294B4FF0A04370
:1023600000F01F0003EB8000D0F8003723F4403367
:10237000C0F80037D0F800371A43C0F8002702B081
:1023800030BC7047DAB2072AF9D8980000F18040D3
:1023900003F1400200F5C04052B29200D0F810554F
:1023A00092B202F1804202F5C04245F00105C0F848
:1023B00010550020106012680192019A0029DED0A9
:1023C0009CF9282054F82220002AD8D00D49012257
:1023D00002FA03F3C1F80433D1E71F288ABF084A81
:1023E0004FF0A04200F01F03D2F8102598BF03461B
:1023F000DA4002F0010202321204ACE7B801002018
:1024000000030050006000402DE9F047002384B035
:10241000CDE90233BE4AD2F80011012900F08D81C6
:102420001E46BB4BD3F80421012A00F07781B84B3C
:10243000D3F80821012A00F05C81B54BD3F80C21B8
:10244000012A00F04781B24BD3F81021012A00F095
:102450003281AF4BD3F81421012A00F01D81AC4B1F
:10246000D3F81821012A00F00881A94BD3F81C21C8
:10247000012A09D0A64BD3F87C21012A00F07481EF
:1024800046BB04B0BDE8F087D3F804231106F1D5AC
:102490000022C3F81C21D3F81C110091D3F87C1141
:1024A0000098012946F0800614D1C3F87C21D3F8A6
:1024B0007C3101934FF0A042019BD2F82015954B3F
:1024C0000291C2F82015D3F820250392C3F82025E5
:1024D00046F00046904F01250024A30003F18043FD
:1024E000354203F5C0434FEA45050BD0D3F810053C
:1024F00057F82420D3F81015C0F30520C1F301418B
:1025000002B190470134082CE7D1002EB9DA824C91
:10251000804D01264FF0A04794F95800421C48D046
:10252000C0F3C20202F110030DEB030200F0070337
:1025300012F8082C06FA03F31A42C1B200F03F0069
:1025400037D01F2800F2918002464FF0A04909EBD6
:10255000820306FA02F2D3F800C7D3F800E72EF49C
:10256000403EC3F800E704EB000ECCF3014C9EF9AB
:1025700028E0D3F800A754F82E80BCF1020F0CBF5E
:102580004FF4403E4FF4003E4EEA0A0EC3F800E717
:10259000C9F82025B8F1000F0BD08909032900F0F4
:1025A000E180BCF1020F00F0DA80BCF1030F00F013
:1025B000F38094F95900431C47D0C0F3C20202F1E2
:1025C00010030DEB030200F0070312F8082C06FAC3
:1025D00003F31A42C1B200F03F0036D01F2848D89A
:1025E00002464FF0A04909EB820306FA02F2D3F843
:1025F00000C7D3F800E72EF4403EC3F800E704EB31
:10260000000ECCF3014C9EF928E0BCF1020F54F807
:102610002E80D3F800E70CBF4FF4403A4FF4003A55
:102620004EEA0A0EC3F800E7C9F82025B8F1000FFA
:102630000BD08909032900F09080BCF1020F00F053
:102640008980BCF1030F00F0AB80D7F820250292FF
:10265000C7F82025D5F820350393C5F82035134356
:102660007FF45AAF04B0BDE8F08701F01F02A9461D
:102670006DE701F01F02A946B5E7D3F80423500621
:102680007FF5F3AE0022C3F81821D3F81831009378
:10269000009B46F04006E8E6D3F8042394067FF555
:1026A000DEAE0022C3F81421D3F814310093009B4E
:1026B00046F02006D3E6D3F80423D5067FF5C9AE4D
:1026C0000022C3F81021D3F810310093009B46F08C
:1026D0001006BEE6D3F8042317077FF5B4AE002238
:1026E000C3F80C21D3F80C310093009B46F0080688
:1026F000A9E6D3F8042352077FF59FAE0022C3F862
:102700000821D3F808310093009B46F0040694E6B4
:102710000060004000030050B8010020D3F80423FB
:1027200091077FF584AE0022C3F80421D3F8043169
:102730000093009B46F0020679E6D2F8046316F097
:1027400001063FF46EAEC2F80031D2F800310093BA
:10275000009B66E601297FF478AFC04775E7012941
:102760007FF427AFC04724E70022C3F87C21D3F8C9
:102770007C3101934FF0A042019BD2F820150A4B07
:102780000291C2F82015D3F820250392C3F8202522
:10279000002E3FF4BCAE9BE602297FF40AAFE1E7CE
:1027A00002297FF452AFD8E7000300500249034AE0
:1027B00001230B7013707047100000201E020020D0
:1027C000064B1B7843B106494FF0A04301204FF45C
:1027D00080520870C3F80825704700BF2C02002003
:1027E0001E020020014B00221A70704738000020A2
:1027F000014B00221A7070474C02002004494FF030
:10280000A04301204FF480520870C3F80C25704794
:102810002C020020F8B54FF0A0434FF48052C3F8CB
:102820000C25002841D0224C224E074600250022CC
:102830004FF480413046FFF78BF901232370237852
:102840001BB130BF2378002BFBD14FF0A0434022B7
:10285000C3F80C254FF4804100223046FFF778F989
:102860000123237023781BB130BF2378002BFBD1C9
:102870004FF0A04301354022BD42C3F80825D6D110
:102880004FF0A0434FF48052C3F8082509480022B6
:102890004FF48031FFF75CF90123237023781BB1DB
:1028A00030BF2378002BFBD1F8BD014CE8E700BF17
:1028B0004C02002060000020F8B54FF0A0434FF418
:1028C0008072C3F80C25002841D0224C224E0746C6
:1028D000002500224FF480413046FFF739F90123EB
:1028E000237023781BB130BF2378002BFBD14FF02E
:1028F000A0434022C3F80C254FF48041002230460B
:10290000FFF726F90123237023781BB130BF23780A
:10291000002BFBD14FF0A04301354022BD42C3F84C
:102920000825D6D14FF0A0434FF48072C3F8082594
:10293000094800224FF48031FFF70AF90123237080
:1029400023781BB130BF2378002BFBD1F8BD014C9D
:10295000E8E700BF4C02002060000020274B284819
:1029600030B401220021274C0225C3F8F055C3F8EA
:10297000F415C3F80025C3F81845C3F81025C3F8AB
:102980002C06C3F83026C3F81011DA60D3F81021F2
:10299000002AFBD01949D1F80034012BFBD00024C8
:1029A0000123164AC1F814418B60D2F81431002B70
:1029B000FBD0002401231149C2F800411360D1F873
:1029C0000031002BFBD0002401230C4AC1F8044144
:1029D0004B60D2F80431002BFBD0002401230749BF
:1029E000C2F814419360D1F81431002BFBD00023BE
:1029F000C1F80035006830BC704700BF007000406F
:102A0000480200200001050070B54FF0804301240A
:102A10004FF01021C3F88045C3F87845DC67D1F842
:102A200080205F4B5F48DFED606AD2431A60D1F8C7
:102A300084305E49DB430360C2F3821008705C4956
:102A4000C2F3C20008705B4902F007020A705A49DB
:102A5000C3F30330C3F30325087005EB850101EBD5
:102A600081014FF47A76890006FB0011C3F3031647
:102A70000A2003F00F0310FB0611194407EE901A09
:102A8000F8EEE77A4D494E480D7087EEA67A4D492B
:102A900003700E704C494D4B013A84B0032500265B
:102AA0009FED3D0B81ED007A4FF4FA6101FB02F2DC
:102AB0001A6000F0AFFB51EC100B00F0B7FD444A78
:102AC000444B80B24FF400411880C2F83C574FF09D
:102AD000A043C2F80C154FF40051C2F83457C2F8A5
:102AE0000C154FF48072C3F82057C3F80825402214
:102AF000C3F81857C3F808254FF48052C3F830576D
:102B0000C3F80825344BADF80C00324601A90193F7
:102B100032488DF80A600723ADF80830ADF80E6032
:102B2000FFF76EF8FEF7C4FF31462D4A2D48FEF739
:102B3000F7FF31462C4A2D48FEF7F2FF31462C4A6A
:102B40002C48FEF7EDFFFFF7D7FA9DF802302A4A2E
:102B50008DF8015023F007030226694626208DF8E0
:102B600002308DF80060FFF71FFB21462620FFF79B
:102B7000DBFB9DF80630214AADF8046023F0070323
:102B800001A91F208DF80630FFF70EFB21461F20FC
:102B9000FFF7CAFB04B070BD0000000000009940C0
:102BA0003C020020240200200000C842360200201F
:102BB00037020020380200204D020020450200208C
:102BC000440200204E0200202802002020020020A3
:102BD000000300501C0200202D86FFFF8000002013
:102BE000FD270000A8390000F1270000AC390000E3
:102BF000E5270000A4390000AD270000C127000030
:102C00002DE9804889B0FFF7FFFE4FF08042012395
:102C10000021C2F81835C2F804119360D2F80431CB
:102C2000002BFBD000229448DFF8AC829FED938A02
:102C3000DFF8A892924C934FDFF8A4B2DFF8A4A279
:102C40004FF4A021FEF784FF8F4A0023137088F809
:102C5000003098F80030002B41D13B78002B39D060
:102C60009BF80000FFF7D6FD9AF80000FFF7D2FDB1
:102C700099F80000FFF7CEFD844800224FF4203180
:102C8000FEF766FF0123237023781BB130BF237842
:102C9000002BFBD17E4B1878FFF70EFE7D4B18788A
:102CA000FFF70AFE7C4B1878FFF706FE7B4B18787F
:102CB000FFF702FE754800224FF42031FEF748FF6F
:102CC0000123237023781BB130BF2378002BFBD165
:102CD00000233B7030BF98F80030002BBDD0704A05
:102CE000704965484FF40043C2F808350022FEF7EA
:102CF0002FFF4FF080420023C2F800310123136000
:102D0000D2F80031002BFBD0674B0A2543F00106B7
:102D10004FF47A40B047013DFAD1FFF71FFE07EEAE
:102D2000900AF8EE677A614B67EE887AB3EE057A1F
:102D3000C3ED007AD3ED007AF4EEC77AF1EE10FA23
:102D40006CDDD3ED007A93ED007A594B67EE877A0C
:102D500093ED006A574B87EE867AF2EE006AC6EE74
:102D6000877AC3ED007AD3ED007A534B1E8807EEC5
:102D7000106AB8EEC77A67EE277A17EE900A00F06D
:102D8000FDFB41EC100B00F045FA30468DED000BD9
:102D900000F0D2FBDDE9002300F090FA474B00225F
:102DA00000F08EFA00F042FC454B80B2188099F892
:102DB0000030012B39D19FED2E7B03ABADF80C0019
:102DC00004934048012344F6206204A98DED067B5C
:102DD000ADF81430FFF784F83B492C480022FEF789
:102DE000B7FE0123237023781BB130BF2378002B5B
:102DF000FBD14FF0A0414FF080424FF48070C1F8FA
:102E000008050121516026494FF40042C1F80C2504
:102E10001D4A0023137088F800301EE74FF0A043CE
:102E20004FF48072C3F80C25D6E7284B284E1A6859
:102E30004FF4FA704FF400432946E2FB03010123EB
:102E400033704FF47A72002300F010FC2A460146DA
:102E50002048FEF77DFE337823B130BF1C4B1B7832
:102E6000002BFAD1164B1888A5E700BFAFF30080FE
:102E70000000000000000000400000200100043CB1
:102E80004C020020100000202C02002060000020D6
:102E90004D020020450200204E0200204402002086
:102EA0000003005000807C03B03900004002002085
:102EB00028020020300200201C02002000003940BF
:102EC0003402002080000020CD0C010020020020F0
:102ED00038000020180000201E02002038020020C8
:102EE0003602002037020020BFF34F8F0549064B02
:102EF000CA6802F4E0621343CB60BFF34F8F00BF98
:102F0000FDE700BF00ED00E00400FA0510B54FF04A
:102F10008053D3F83021082A26D08F4AD2F888303F
:102F200043F47003C2F88830BFF34F8FBFF36F8F45
:102F30004FF08053D3F83021082A00F0B6804FF0CC
:102F40001023D3F80C22D10700F1E880D3F8002237
:102F5000002AC0F2BD80D3F80432002BC0F2B88042
:102F60007E4B7F4A1A6010BD4FF080410020C1F8AF
:102F70000C017C4AC1F81001C1F83805D3F80414DB
:102F8000C2F82015D3F80814C2F82415D3F80C148D
:102F9000C2F82815D3F81014C2F82C15D3F814145D
:102FA000C2F83015D3F81814C2F83415D3F81C142D
:102FB000C2F84015D3F82014C2F84415D3F82414ED
:102FC000C2F84815D3F82814C2F84C15D3F82C14BD
:102FD000C2F85015D3F83014C2F85415D3F834148D
:102FE000C2F86015D3F83814C2F86415D3F83C144D
:102FF000C2F86815D3F84014C2F86C15D3F8341130
:10300000D3F84434C2F87035052942D8564B5B5C7E
:103010001BB1564B564AC3F88C26564B5B5C73B1BA
:103020004FF080535449D3F83021FB20C1F81805E4
:10303000082AD3F834117FF470AF052929D84F4BF3
:103040005B5CBBB14FF080524FF08040D2F85832F9
:10305000D0F8E41ED2F8304121F00F0103F00F0345
:103060000B43C0F8E43E082CD2F834117FF455AF7E
:1030700005290ED8424B5B5C5BB14FF08053414A4F
:10308000D3F830314FF40071082BC2F840167FF4AA
:1030900044AF4FF08043D3F80024D2077FF53DAF13
:1030A0006FF00102C3F8002437E7D3F83431052B61
:1030B00008D94FF010224FF08043D2F80822C3F80D
:1030C00058253CE7304AD35C002B3FF438AFF0E79B
:1030D0002E4A0123C2F80435D2F80034002BFBD06D
:1030E0004FF010231221294AC3F80012D2F80034FD
:1030F000002BFBD04FF010231221244AC3F80412F6
:10310000D2F80034002BFBD000232049C2F804354C
:10311000D1F80034002BFBD0FFF7E6FE1B4A012359
:10312000C2F80435D2F80034002BFBD04FF0102148
:10313000164AD1F80C3223F00103C1F80C32D2F850
:103140000034002BFBD000231049C2F80435D1F81D
:103150000034002BFBD0DFE700ED00E0880000200A
:103160000090D00300C00040C03900000050004073
:1031700048810300C039000000F00040C039000061
:10318000C039000000900240B839000000E0014062
:1031900008B5074B044613B10021AFF30080054B7F
:1031A0001868836A03B19847204600F031F800BFE1
:1031B00000000000C839000070B50D4D0D4C641BB7
:1031C000A4100026A64209D10B4D0C4C00F0D0FBF8
:1031D000641BA4100026A64205D170BD55F8043B1F
:1031E00098470136EEE755F8043B98470136F2E779
:1031F000EC000020EC000020EC000020F00000209B
:1032000002440346934200D1704703F8011BF9E7DB
:10321000FEE700BF53EC102BC3F30A5CACF2FF31A6
:10322000132910B510EE100A9E4622DC002909DB96
:103230001F4C44FA01FC03EA0C04204310D143EC78
:10324000102B10BD03F0004E013104BF4EF07F5E25
:103250004EF4401E00207346024643EC102B10BD76
:103260004FF4002343FA01F18E442EEA0C0E0020A5
:10327000F1E7332908DDB1F5806FE0D1194600F0A0
:103280001FF841EC100B10BDACF2134C4FF0FF34A3
:1032900024FA0CFC12EA0C0FD1D00123C1F1330146
:1032A00003FA01F1401828BF9E4420EA0C00D2E73F
:1032B000FFFF0F0081F0004102E000BF83F00043F8
:1032C00030B54FEA41044FEA430594EA050F08BFC1
:1032D00090EA020F1FBF54EA000C55EA020C7FEA85
:1032E000645C7FEA655C00F0E2804FEA5454D4EB02
:1032F0005555B8BF6D420CDD2C4480EA020281EACC
:10330000030382EA000083EA010180EA020281EA03
:103310000303362D88BF30BD11F0004F4FEA013155
:103320004FF4801C4CEA113102D0404261EB410164
:1033300013F0004F4FEA03334CEA133302D05242EA
:1033400063EB430394EA050F00F0A780A4F10104A6
:10335000D5F1200E0DDB02FA0EFC22FA05F28018E0
:1033600041F1000103FA0EF2801843FA05F35941C6
:103370000EE0A5F120050EF1200E012A03FA0EFC45
:1033800028BF4CF0020C43FA05F3C01851EBE3716F
:1033900001F0004507D54FF0000EDCF1000C7EEB8C
:1033A00000006EEB0101B1F5801F1BD3B1F5001FCA
:1033B0000CD349085FEA30004FEA3C0C04F10104E9
:1033C0004FEA445212F5800F80F09A80BCF1004F12
:1033D00008BF5FEA500C50F1000041EB045141EA94
:1033E000050130BD5FEA4C0C404141EB0101013C5D
:1033F00028BFB1F5801FE9D291F0000F04BF01464C
:103400000020B1FA81F308BF2033A3F10B03B3F11D
:1034100020020CDA0C3208DD02F1140CC2F10C02AD
:1034200001FA0CF021FA02F10CE002F11402D8BF0B
:10343000C2F1200C01FA02F120FA0CFCDCBF41EAD7
:103440000C019040E41AA2BF01EB0451294330BDA6
:103450006FEA04041F3C1CDA0C340EDC04F1140483
:10346000C4F1200220FA04F001FA02F340EA03005A
:1034700021FA04F345EA030130BDC4F10C04C4F1A0
:10348000200220FA02F001FA04F340EA0300294680
:1034900030BD21FA04F0294630BD94F0000F83F4CA
:1034A000801306BF81F480110134013D4EE77FEAAD
:1034B000645C18BF7FEA655C29D094EA050F08BFF9
:1034C00090EA020F05D054EA000C04BF19461046DA
:1034D00030BD91EA030F1EBF0021002030BD5FEA1E
:1034E000545C05D14000494128BF41F0004130BD46
:1034F00014F580043CBF01F5801130BD01F000459A
:1035000045F0FE4141F470014FF0000030BD7FEA0C
:10351000645C1ABF194610467FEA655C1CBF0B4607
:10352000024650EA013406BF52EA033591EA030F1E
:1035300041F4002130BD00BF90F0000F04BF002116
:10354000704730B54FF4806404F132044FF0000549
:103550004FF0000150E700BF90F0000F04BF0021C2
:10356000704730B54FF4806404F1320410F0004528
:1035700048BF40424FF000013EE700BF42004FEA23
:10358000E2014FEA31014FEA02701FBF12F07F43A0
:1035900093F07F4F81F06051704732F07F4208BF57
:1035A000704793F07F4F04BF41F40021704730B55E
:1035B0004FF4607401F0004521F000411CE700BFAA
:1035C00050EA010208BF704730B54FF000050AE02D
:1035D00050EA010208BF704730B511F0004502D52E
:1035E000404261EB41014FF4806404F132045FEA30
:1035F000915C3FF4D8AE4FF003025FEADC0C18BFD9
:1036000003325FEADC0C18BF033202EBDC02C2F1CA
:10361000200300FA03FC20FA02F001FA03FE40EA5C
:103620000E0021FA02F11444BDE600BF4A0011D297
:1036300012F5001211D20DD56FF47873B3EB62520C
:103640000ED44FEAC12343F0004343EA505323FA18
:1036500002F070474FF00000704750EA013002D18D
:103660004FF0FF3070474FF00000704753B94AB930
:10367000002908BF00281CBF4FF0FF314FF0FF307A
:1036800000F074B9ADF1080C6DE904CE00F006F855
:10369000DDF804E0DDE9022304B070472DE9F047CE
:1036A000089D04468E46002B4DD18A42944669D926
:1036B000B2FA82F252B101FA02F3C2F1200120FA09
:1036C00001F10CFA02FC41EA030E94404FEA1C4857
:1036D000210CBEFBF8F61FFA8CF708FB16E341EA53
:1036E000034306FB07F199420AD91CEB030306F1D9
:1036F000FF3080F01F81994240F21C81023E6344FA
:103700005B1AA4B2B3FBF8F008FB103344EA03449D
:1037100000FB07F7A7420AD91CEB040400F1FF33B2
:1037200080F00A81A74240F207816444023840EAEF
:103730000640E41B00261DB1D4400023C5E9004328
:103740003146BDE8F0878B4209D9002D00F0EF80AB
:103750000026C5E9000130463146BDE8F087B3FADE
:1037600083F6002E4AD18B4202D3824200F2F980C6
:10377000841A61EB030301209E46002DE0D0C5E9C9
:10378000004EDDE702B9FFDEB2FA82F2002A40F015
:103790009280A1EB0C014FEA1C471FFA8CFE012618
:1037A000200CB1FBF7F307FB131140EA01410EFBBC
:1037B00003F0884208D91CEB010103F1FF3802D263
:1037C000884200F2CB804346091AA4B2B1FBF7F05D
:1037D00007FB101144EA01440EFB00FEA64508D980
:1037E0001CEB040400F1FF3102D2A64500F2BB80BD
:1037F0000846A4EB0E0440EA03409CE7C6F120070C
:10380000B34022FA07FC4CEA030C20FA07F401FA51
:1038100006F31C43F9404FEA1C4900FA06F3B1FBDA
:10382000F9F8200C1FFA8CFE09FB181140EA01413F
:1038300008FB0EF0884202FA06F20BD91CEB0101DC
:1038400008F1FF3A80F08880884240F28580A8F134
:1038500002086144091AA4B2B1FBF9F009FB101186
:1038600044EA014100FB0EFE8E4508D91CEB010124
:1038700000F1FF346CD28E456AD90238614440EAC7
:103880000840A0FB0294A1EB0E01A142C846A64647
:1038900056D353D05DB1B3EB080261EB0E0101FAD0
:1038A00007F722FA06F3F1401F43C5E9007100262D
:1038B0003146BDE8F087C2F12003D8400CFA02FC83
:1038C00021FA03F3914001434FEA1C471FFA8CFE93
:1038D000B3FBF7F007FB10360B0C43EA064300FB83
:1038E0000EF69E4204FA02F408D91CEB030300F121
:1038F000FF382FD29E422DD9023863449B1B89B2D8
:10390000B3FBF7F607FB163341EA034106FB0EF360
:103910008B4208D91CEB010106F1FF3816D28B420D
:1039200014D9023E6144C91A46EA004638E72E46D9
:10393000284605E70646E3E61846F8E64B45A9D2D1
:10394000B9EB020864EB0C0E0138A3E74646EAE740
:10395000204694E74046D1E7D0467BE7023B6144EE
:1039600032E7304609E76444023842E7704700BF57
:10397000F8B500BFF8BC08BC9E467047F8B500BF5C
:10398000F8BC08BC9E467047000000000000000024
:103990000338FDD87047000000000000240100201B
:1039A000ED160000180000204000002060000020FC
:1039B0000338FDD87047000000000000010100003E
:1039C00001000000000000008C000020000000004A
:0839D00070D8FF7F0100000028
:1039D8000010014011000400010000000000000078
:1039E8000000000000000000FFFFFFFFFFFFFFFFD7
:1039F80000000000000000000000000000000000BF
:103A080001000000000000000000000000000000AD
:103A1800FFFFFFFFFFFFFFFF0000000000000000A6
:103A2800000000000000000000000000000000008E
:103A3800FFFFFFFFFFFFFFFF000000000000000086
:103A4800000000000000000000C00140000000006D
:103A58000090D003000000000000000000000000FB
:103A6800000000000000000000000000000000004E
:103A7800000000000000000000000000000000003E
:103A8800000000000000000000000000000000002E
:103A9800000000000000000000000000000000001E
:103AA800000000000000000000000000000000000E
:0C3AB800000000002512000001120000B8
:04000003000012BD2A
:00000001FF
