:1010000000000420BD120000E5120000E7120000FD
:10101000E9120000EB120000ED12000000000000D9
:10102000000000000000000000000000EF120000BF
:10103000F112000000000000F3120000F5120000A1
:10104000F7120000F7120000F7120000F71200007C
:10105000F7120000F7120000151D0000F712000043
:10106000F7120000F7120000F7120000F71200005C
:10107000F7120000F7120000F7120000F71200004C
:10108000F7120000D9160000F7120000F712000056
:10109000F7120000F7120000F7120000F71200002C
:1010A000F7120000F7120000F7120000F71200001C
:1010B000011C0000F712000000000000000000000A
:1010C000F7120000F7120000F7120000F7120000FC
:1010D000F7120000F7120000F7120000F7120000EC
:1010E000F7120000F7120000F712000000000000E5
:1010F00000000000F712000000000000F7120000DE
:1011000000000000000000000000000000000000DF
:1011100000000000000000000000000000000000CF
:1011200000000000000000000000000000000000BF
:1011300000000000000000000000000000000000AF
:10114000000000000000000000000000000000009F
:10115000000000000000000000000000000000008F
:10116000000000000000000000000000000000007F
:10117000000000000000000000000000000000006F
:10118000000000000000000000000000000000005F
:10119000000000000000000000000000000000004F
:1011A000000000000000000000000000000000003F
:1011B000000000000000000000000000000000002F
:1011C000000000000000000000000000000000001F
:1011D000000000000000000000000000000000000F
:1011E00000000000000000000000000000000000FF
:1011F00000000000000000000000000000000000EF
:1012000010B5054C237833B9044B13B10448AFF340
:1012100000800123237010BDA0000020000000000A
:101220009C28000008B5034B1BB103490348AFF3EA
:10123000008008BD00000000A40000209C280000E1
:10124000A3F5803A704700BF174B002B08BF134B24
:101250009D46FFF7F5FF00218B460F461348144AC1
:10126000121A01F0E5FA0E4B002B00D098470D4BF7
:10127000002B00D098470020002104000D000D48ED
:10128000002802D00C48AFF3008001F0ADFA200036
:10129000290000F099FF01F093FA00BF0000080058
:1012A000000000000000000000000420A00000205A
:1012B000D801002000000000000000000649074A95
:1012C000074B9B1A03DD043BC858D050FBDC01F0F0
:1012D00035F9FFF7B9FF0000A8280000080000203A
:1012E000A0000020FEE7FEE7FEE7FEE7FEE7FEE7E0
:1012F000FEE7FEE7FEE7FEE772B6024A1368013337
:1013000013607047BC000020034A1368013B136060
:1013100003B962B6704700BFBC00002099B110B499
:10132000B2FBF3F403FB1424A4B244B9C0E90014E3
:1013300084608281C38120465DF8044B7047092098
:101340005DF8044B70470E20704700BF10B483B0A7
:1013500050E8013F1FFA83FCC489A4448489A44552
:1013600028BFACEB040C0489A44502BFBFF32F8F48
:10137000002207E0CCEA030C40E801C4002CE7D1CE
:101380004FF001028DF803200193019C9DF803208A
:101390000C6032B1006810FA84F003B05DF8044BC1
:1013A000704702F0FF03184603B05DF8044B704726
:1013B0000A884B889A4201D00020704750E8012FDC
:1013C000C2EA024240E80123002BF7D10120704716
:1013D00010B483B050E8023F1FFAA3FCC488A445B0
:1013E00002BFBFF32F8F00220EE0C489A44484897A
:1013F000A44528BFACEB040CC3EA0C4C40E802C483
:10140000002CE7D14FF001028DF803200193019CDD
:101410009DF803200C6032B1006800EB144003B06B
:101420005DF8044B704702F0FF03184603B05DF807
:10143000044B70470A884B889A4201D000207047BD
:1014400050E8022FC2EA224240E80223002BF7D1E3
:101450000120704710B41F4C437944F823201E4CE0
:1014600004EBC3031B798BBB03680A88C3F8082508
:1014700090F904308A78002B20DB03F1604352019D
:1014800003F56143D2B283F8002390F90430002BB6
:1014900009DB12494FEA531C012203F01F0302FA31
:1014A00003F341F82C30437904EBC302012144F8E3
:1014B0003300117100205DF8044B7047084903F0B8
:1014C0000F0352011944D2B20A76DEE708205DF814
:1014D000044B7047C8000020C000002000E100E07D
:1014E000FCEC00E0036801221A60704703680122E7
:1014F0005A60704770B405684FF480348C40C5F86A
:101500000843056801F1500CC5F848434FEA8C0CBC
:1015100005681FFA8CFC002645F80C6083B055F86E
:101520000C500195019D056801F5A87122F07F42DC
:1015300045F821200268C2F8444313B10368C3F898
:10154000044303B070BC70472DE9F0474FF4803678
:1015500022F07F4702688E40C2F848630268C2F8F2
:101560000863026802EB810C044601F15005D2F8D1
:101570000405DCF84025CCF84005AD00ADB2121AE8
:1015800020684FF0000840F8058082B04059009074
:1015900022F07F42012A00988A46994641D022686B
:1015A000D2F80455C2F844637A1B22F07F42012A24
:1015B0000AF5A87125D0236843F821702068D0F877
:1015C00004557B1BC9F1FF12013B02F57F4223F05A
:1015D0007F439A4211D343B1C0F84463236800208B
:1015E000C3F8046302B0BDE8F087013740F821700A
:1015F0002068D0F804359D42EED00D2002B0BDE841
:10160000F0872368013743F821700C4B4FF480605A
:1016100043F0010398472068D0F804359D42DBD0A1
:10162000EBE7064A4FF4806042F0010290472268DF
:1016300042F8058052590192019AB0E760280000F3
:1016400002680223C2F8443311B10268C2F80433BD
:10165000704700BF0368D3F8040100B97047002247
:1016600082B0C3F80421D3F804310193019B012017
:1016700002B0704702684FF4803303FA01F1C2F8F8
:1016800048130368C3F80813704700BF503189003E
:10169000036889B2585800B9704700225A5082B086
:1016A0005B580193019B012002B070470368D3F897
:1016B0000405704790F90430002B09DB5A090548EE
:1016C00003F01F030121403201FA03F340F82230F6
:1016D000704700BF00E100E0024A034B10681B683E
:1016E000184700BFC0000020C800002030B48D683B
:1016F0008468C368CA68A54272EB03032CBF01204B
:10170000002030BC704700BF2DE9F04F2DED028B5B
:1017100083B008EE100AFFF79DFF40B1B04AD2E94E
:10172000003113F1807341F10001C2E9003118EE7C
:10173000100A0021FFF7AAFFAA4D60B32B6853B32C
:10174000A94B2C681B7823B31CB3A848FFF7AEFF46
:10175000A34BA74A19685B684018D2E9001243F10D
:101760000003884273EB020203D210F1807043F150
:101770000003D4E902128842934180F06181B2F102
:10178000FF3F08BFB1F1FF3F03D09A48214600F068
:1017900095FA00232B6018EE100A0121FFF776FF5F
:1017A000002840F02D81944801A9FFF711FE002880
:1017B0003AD0914C4FF0FF384FF0FF3909E033B386
:1017C00001A92046FFF736FE01A92046FFF700FEDB
:1017D00050B30378012B11D0022BF0D1854E304647
:1017E00000F080FA30B1C0E90289304600F07AFAA0
:1017F0000028F8D17C4B01221A70E1E72B68416880
:10180000994200F0B6807B4800F076FAD8E741684C
:10181000D1E90223B3F1FF3F08BFB2F1FF3FCFD0C0
:10182000744800F04BFACBE7724FDFF8C081DFF865
:10183000B091384600F05CFA002852D0D0E902237B
:10184000B3F1FF3F08BFB2F1FF3F00F08E8029687F
:1018500091B12968D1E9020182428B4145D22B68BE
:10186000D3E90223B3F1FF3F08BFB2F1FF3F03D03A
:101870002968384600F022FA384600F033FA044668
:1018800040465B4ED4E902BAFFF710FFD9E90013D6
:101890003268401843F100039042726873EB020211
:1018A00003D210F1807043F10003BBEB00006AEB40
:1018B0000303012873F1000325DBB0F5D40F4ED2EA
:1018C0005A464FF4160300214046FFF73DFE88B10B
:1018D0000D281CD0002338462B6000F009FA0028A0
:1018E000ACD12B68002B00F0A28003B0BDEC028BC2
:1018F000BDE8F08F2B68002B3ED02C6003B0BDEC10
:10190000028BBDE8F08F00214046FFF7B3FE364B57
:101910001B78002BDED04046FFF7C8FED9F8003018
:10192000D6E90012C018D9F8043043F10003884208
:1019300073EB020203D210F1807043F10003D4E98B
:101940000212884293411CD2B2F1FF3F08BFB1F1AD
:10195000FF3FBFD02146384600F0B0F9BAE7404615
:10196000FFF7A4FE254A0244ABE7384600F0BAF977
:101970005FE700232B6023E718EE100AFFF7B2FDA4
:10198000BBE70020FFF7B8FC23692BB94FF0FF320B
:101990004FF0FF33C4E902230020FFF7B5FCD4E980
:1019A000053098470020FFF7A7FC2369A3B1D4E9CD
:1019B0000212B2F1FF3F08BFB1F1FF3F0CD05B183C
:1019C00042F10002A360E2600020FFF79DFC214687
:1019D000384600F073F97DE70020FFF795FC79E7C2
:1019E000D000002050010020D80000200800002076
:1019F000480100206828000034010020FFFF690032
:101A00002748284EFFF752FE274B1A685B6880185C
:101A1000D6E9001243F10003884273EB020203D2BD
:101A200010F1807043F10003C6E90003BBE618EE35
:101A3000100A03B0BDEC028BBDE8F04FFFF756BDB6
:101A40000020FFF759FC23692BB94FF0FF324FF00C
:101A5000FF33C4E902230020FFF756FCD4E9053028
:101A600098470020FFF748FC2369A3B1D4E902128C
:101A7000B2F1FF3F08BFB1F1FF3F0CD05B1842F15C
:101A80000002C4E902320020FFF73EFC074821466D
:101A900000F014F97DE60020FFF736FC79E600BF80
:101AA0000800002048010020D00000206828000025
:101AB00010B582B0062200248DF806201249134882
:101AC000ADF8044008235822FFF728FC044610B163
:101AD000204602B010BD0E4A0E4801A9FFF7BAFC1D
:101AE00004460028F4D10B480121FFF7A9FD01238A
:101AF0001946094A0748FFF7FDFC084B012220461A
:101B00001A7002B010BD00BFDC00002034010020BC
:101B10000917000008000020FFFF7F00D800002008
:101B20006AB19FED097BA1F101010368B1FA81F16E
:101B3000490983ED027BC3E90412002070470720A6
:101B4000704700BFAFF30080FFFFFFFFFFFFFFFF05
:101B500070B5044682B0002016460D46FFF7CCFB58
:101B6000D4E90223B3F1FF3F08BFB2F1FF3F05D034
:101B70000020FFF7C9FB002002B070BD1C48FFF732
:101B800095FD1C4B1C4A19685B684018D2E900128D
:101B900043F10003884273EB020223D3281843F178
:101BA0000003C4E902030020FFF7AEFB2369A6612E
:101BB00003B12561114801A9FFF7C8FB034670B1C5
:101BC00000250E481D705C6001A9FFF7F1FB00289D
:101BD000D2D00748FFF76EFD284602B070BD042042
:101BE00002B070BD10F1807043F10003D6E700BF72
:101BF00008000020D000002048010020340100200F
:101C000000B52C4BD3F8102185B052B100212A4ADF
:101C1000C3F81011D3F810115379039103995907A0
:101C200041D4244BD3F8142152B10021224AC3F8E5
:101C30001411D3F81411537902911B0702992CD473
:101C40001C4BD3F81C215AB11B4A0021C3F81C11AC
:101C50005079D3F81C31019310F01000019B17D07C
:101C6000144BD3F8042182B1134A0021C3F80411A4
:101C7000D3F804111368009101210098117123B168
:101C8000032005B05DF804EB184705B05DF804FBD0
:101C90001368002BE4D09847E2E71368002BCFD0FD
:101CA00002209847CCE71368002BBAD00120984750
:101CB000B7E700BF00C001405401002070B5446880
:101CC000064620680D4618B908E02468206828B147
:101CD000B368294698470028F7D120682860256016
:101CE00070BD00BF4368186808B102681A60704789
:101CF00043681868704700BF4368186818B908E05F
:101D00000346006828B18142FAD10A681A600120AE
:101D1000704770472DE9F047002384B0CDE90233C6
:101D2000BE4AD2F80011012900F08D811E46BB4B3E
:101D3000D3F80421012A00F07781B84BD3F80821A9
:101D4000012A00F05C81B54BD3F80C21012A00F088
:101D50004781B24BD3F81021012A00F03281AF4BFA
:101D6000D3F81421012A00F01D81AC4BD3F81821BF
:101D7000012A00F00881A94BD3F81C21012A09D0BF
:101D8000A64BD3F87C21012A00F0748146BB04B035
:101D9000BDE8F087D3F804231106F1D50022C3F87B
:101DA0001C21D3F81C110091D3F87C110098012953
:101DB00046F0800614D1C3F87C21D3F87C3101931E
:101DC0004FF0A042019BD2F82015954B0291C2F82A
:101DD0002015D3F820250392C3F8202546F00046AD
:101DE000904F01250024A30003F18043354203F501
:101DF000C0434FEA45050BD0D3F8100557F824200F
:101E0000D3F81015C0F30520C1F3014102B190478A
:101E10000134082CE7D1002EB9DA824C804D01261E
:101E20004FF0A04794F95800421C48D0C0F3C202BA
:101E300002F110030DEB030200F0070312F8082C67
:101E400006FA03F31A42C1B200F03F0037D01F2850
:101E500000F2918002464FF0A04909EB820306FA96
:101E600002F2D3F800C7D3F800E72EF4403EC3F8DF
:101E700000E704EB000ECCF3014C9EF928E0D3F808
:101E800000A754F82E80BCF1020F0CBF4FF4403E67
:101E90004FF4003E4EEA0A0EC3F800E7C9F82025C9
:101EA000B8F1000F0BD08909032900F0E180BCF1E3
:101EB000020F00F0DA80BCF1030F00F0F38094F918
:101EC0005900431C47D0C0F3C20202F110030DEBCE
:101ED000030200F0070312F8082C06FA03F31A4273
:101EE000C1B200F03F0036D01F2848D802464FF05C
:101EF000A04909EB820306FA02F2D3F800C7D3F82F
:101F000000E72EF4403EC3F800E704EB000ECCF3EC
:101F1000014C9EF928E0BCF1020F54F82E80D3F852
:101F200000E70CBF4FF4403A4FF4003A4EEA0A0E75
:101F3000C3F800E7C9F82025B8F1000F0BD08909D4
:101F4000032900F09080BCF1020F00F08980BCF101
:101F5000030F00F0AB80D7F820250292C7F82025A8
:101F6000D5F820350393C5F8203513437FF45AAFD5
:101F700004B0BDE8F08701F01F02A9466DE701F04B
:101F80001F02A946B5E7D3F8042350067FF5F3AE48
:101F90000022C3F81821D3F818310093009B46F0B3
:101FA0004006E8E6D3F8042394067FF5DEAE00226F
:101FB000C3F81421D3F814310093009B46F0200697
:101FC000D3E6D3F80423D5067FF5C9AE0022C3F8C3
:101FD0001021D3F810310093009B46F01006BEE6A6
:101FE000D3F8042317077FF5B4AE0022C3F80C2101
:101FF000D3F80C310093009B46F00806A9E6D3F80D
:10200000042352077FF59FAE0022C3F80821D3F8BE
:1020100008310093009B46F0040694E600600040FF
:102020000003005060010020D3F8042391077FF5DE
:1020300084AE0022C3F80421D3F804310093009B3E
:1020400046F0020679E6D2F8046316F001063FF482
:102050006EAEC2F80031D2F800310093009B66E604
:1020600001297FF478AFC04775E701297FF427AFD6
:10207000C04724E70022C3F87C21D3F87C310193C8
:102080004FF0A042019BD2F820150A4B0291C2F8F2
:102090002015D3F820250392C3F82025002E3FF405
:1020A000BCAE9BE602297FF40AAFE1E702297FF488
:1020B00052AFD8E700030050014B00221A7070475E
:1020C000D3010020F8B54FF0A0434FF48072C3F85D
:1020D0000C25002841D0224C224E07460025002224
:1020E0004FF480413046FFF733FD012323702378FE
:1020F0001BB130BF2378002BFBD14FF0A04340220F
:10210000C3F80C254FF4804100223046FFF720FD34
:102110000123237023781BB130BF2378002BFBD120
:102120004FF0A04301354022BD42C3F80825D6D167
:102130004FF0A0434FF48072C3F8082509480022ED
:102140004FF48031FFF704FD0123237023781BB186
:1021500030BF2378002BFBD1F8BD014CE8E700BF6E
:10216000D3010020100000204FF0A04310B5032140
:102170004024C3F81817C3F808454FF48054C3F837
:1021800030174FF08042C3F808454FF48074C3F80D
:1021900020170120C3F808450023C2F81805C2F82B
:1021A00004319060D2F80431002BFBD0FFF780FCA3
:1021B000BDE81040024A03480021FFF7B1BC00BF50
:1021C000B9200000742800002DE98848FFF7CCFFF3
:1021D000B54B0222C3F80425D3F80024002AFBD013
:1021E0004FF45F21B04AC3F80815D2F80034002B31
:1021F000FBD00021AC4BC2F80415D3F80024002A10
:10220000FBD04FF45F221268013200F032814FF4AC
:102210005F235B68013300F06181A44F4FF47A744F
:1022200047F001074FF47A40B847013CFAD14FF428
:102230005F239F481A689F49DFF898A2DFF89892B9
:102240009D4DD24302605B689C48DB430B60C2F348
:10225000C20101709A49C2F3821B02F007020A70A0
:1022600098498AF800B0C3F303320A709649C3F361
:1022700003220A709549C3F303120A70944A03F0CB
:102280000F0313704FF0A0444FF48058C4F80C852E
:102290000026BBF1000F2AD000224FF480412846CF
:1022A000FFF756FC012389F8003099F8003023B17C
:1022B00030BF99F80030002BFAD14023C4F80C3518
:1022C00000224FF480412846FFF742FC012389F8A1
:1022D000003099F8003023B130BF99F80030002B5E
:1022E000FAD1013640235E45C4F80835D4D1C4F88C
:1022F000088500224FF480312846FFF729FC01238E
:1023000089F8003099F8003023B130BF99F80030D7
:10231000002BFAD1694B93F800B0C4F80C85002665
:10232000BBF1000F2AD000224FF480412846FFF76E
:102330000FFC012389F8003099F8003023B130BF39
:1023400099F80030002BFAD14023C4F80C35002254
:102350004FF480412846FFF7FBFB012389F800304A
:1023600099F8003023B130BF99F80030002BFAD132
:10237000013640235E45C4F80835D4D1C4F8088539
:1023800000224FF480312846FFF7E2FB012389F851
:10239000003099F8003023B130BF99F80030002B9D
:1023A000FAD1474B93F800B0C4F80C850026BBF176
:1023B000000F2AD000224FF480412846FFF7C8FBC7
:1023C000012389F8003099F8003023B130BF99F823
:1023D0000030002BFAD14023C4F80C3500224FF412
:1023E00080412846FFF7B4FB012389F8003099F8B3
:1023F000003023B130BF99F80030002BFAD10136FC
:1024000040235E45C4F80835D4D1C4F808850022BD
:102410004FF480312846FFF79BFB012389F80030F9
:1024200099F8003023B130BF99F80030002BFAD171
:1024300041F288364FF47A40B847013EFAD1214B39
:102440001878FFF73FFE204B1878FFF73BFE1F4B35
:102450001878FFF737FE1E4B1878FFF733FE41F26E
:1024600088364FF47A40B847013EFAD19AF800B066
:102470000CE701220C49C3F80425D1F80034002BE5
:10248000FBD04FF45F226FF05101074B1160D3F87E
:102490000024002AFBD000220349C3F80425D1F808
:1024A0000034002BFBD0B2E600E0014080280000A1
:1024B000CC010020C401002010000020C901002030
:1024C000D0010020D4010020D2010020D50100203D
:1024D000D1010020C8010020D30100200C4B0122B3
:1024E000C3F80425D3F80024002AFBD04FF45F2260
:1024F0000849074B5160D3F80024002AFBD0002282
:102500000349C3F80425D1F80034002BFBD084E63E
:1025100000E00140EBEDFFFFBFF34F8F0549064B95
:10252000CA6802F4E0621343CB60BFF34F8F00BF71
:10253000FDE700BF00ED00E00400FA0510B54FF024
:102540008053D3F83021082A26D08F4AD2F8883019
:1025500043F47003C2F88830BFF34F8FBFF36F8F1F
:102560004FF08053D3F83021082A00F0B6804FF0A6
:102570001023D3F80C22D10700F1E880D3F8002211
:10258000002AC0F2BD80D3F80432002BC0F2B8801C
:102590007E4B7F4A1A6010BD4FF080410020C1F889
:1025A0000C017C4AC1F81001C1F83805D3F80414B5
:1025B000C2F82015D3F80814C2F82415D3F80C1467
:1025C000C2F82815D3F81014C2F82C15D3F8141437
:1025D000C2F83015D3F81814C2F83415D3F81C1407
:1025E000C2F84015D3F82014C2F84415D3F82414C7
:1025F000C2F84815D3F82814C2F84C15D3F82C1497
:10260000C2F85015D3F83014C2F85415D3F8341466
:10261000C2F86015D3F83814C2F86415D3F83C1426
:10262000C2F86815D3F84014C2F86C15D3F8341109
:10263000D3F84434C2F87035052942D8564B5B5C58
:102640001BB1564B564AC3F88C26564B5B5C73B194
:102650004FF080535449D3F83021FB20C1F81805BE
:10266000082AD3F834117FF470AF052929D84F4BCD
:102670005B5CBBB14FF080524FF08040D2F85832D3
:10268000D0F8E41ED2F8304121F00F0103F00F031F
:102690000B43C0F8E43E082CD2F834117FF455AF58
:1026A00005290ED8424B5B5C5BB14FF08053414A29
:1026B000D3F830314FF40071082BC2F840167FF484
:1026C00044AF4FF08043D3F80024D2077FF53DAFED
:1026D0006FF00102C3F8002437E7D3F83431052B3B
:1026E00008D94FF010224FF08043D2F80822C3F8E7
:1026F00058253CE7304AD35C002B3FF438AFF0E775
:102700002E4A0123C2F80435D2F80034002BFBD046
:102710004FF010231221294AC3F80012D2F80034D6
:10272000002BFBD04FF010231221244AC3F80412CF
:10273000D2F80034002BFBD000232049C2F8043526
:10274000D1F80034002BFBD0FFF7E6FE1B4A012333
:10275000C2F80435D2F80034002BFBD04FF0102122
:10276000164AD1F80C3223F00103C1F80C32D2F82A
:102770000034002BFBD000231049C2F80435D1F8F7
:102780000034002BFBD0DFE700ED00E0300000203C
:102790000090D00300C0004090280000005000408E
:1027A000488103009028000000F0004090280000BD
:1027B00090280000009002408828000000E00140BE
:1027C00008B5074B044613B10021AFF30080054B59
:1027D0001868836A03B19847204600F031F800BFBB
:1027E000000000009828000070B50D4D0D4C641BD2
:1027F000A4100026A64209D10B4D0C4C00F022F883
:10280000641BA4100026A64205D170BD55F8043BF8
:1028100098470136EEE755F8043B98470136F2E752
:1028200094000020940000209400002098000020D4
:1028300002440346934200D1704703F8011BF9E7B5
:10284000FEE700BFF8B500BFF8BC08BC9E46704765
:10285000F8B500BFF8BC08BC9E46704700000000F9
:102860000338FDD87047000000000000CC000020B5
:10287000ED16000010000020000000000000000025
:102880000338FDD87047000000000000010100007F
:1028900001000000000000003400002000000000E3
:0828A000A0E9FF7F0100000028
:1028A80000100140110004000000000000000000BA
:1028B800FFFFFFFFFFFFFFFF000000000000000018
:1028C80000000000000000000090D003000000009D
:1028D80000000000000000000000000000000000F0
:1028E80000000000000000000000000000000000E0
:1028F80000000000000000000000000000000000D0
:1029080000000000000000000000000000000000BF
:1029180000000000000000000000000000000000AF
:102928000000000000000000000000002512000068
:042938000112000088
:04000003000012BD2A
:00000001FF
